{
  "contractName": "CoffeeSupplyChain",
  "abi": [
    {
      "constant": false,
      "inputs": [],
      "name": "renounceOwnership",
      "outputs": [],
      "payable": false,
      "stateMutability": "nonpayable",
      "type": "function"
    },
    {
      "constant": true,
      "inputs": [],
      "name": "owner",
      "outputs": [
        {
          "name": "",
          "type": "address"
        }
      ],
      "payable": false,
      "stateMutability": "view",
      "type": "function"
    },
    {
      "constant": false,
      "inputs": [
        {
          "name": "newOwner",
          "type": "address"
        }
      ],
      "name": "transferOwnership",
      "outputs": [],
      "payable": false,
      "stateMutability": "nonpayable",
      "type": "function"
    },
    {
      "inputs": [
        {
          "name": "_supplyChainAddress",
          "type": "address"
        }
      ],
      "payable": false,
      "stateMutability": "nonpayable",
      "type": "constructor"
    },
    {
      "anonymous": false,
      "inputs": [
        {
          "indexed": true,
          "name": "user",
          "type": "address"
        },
        {
          "indexed": true,
          "name": "batchNo",
          "type": "address"
        }
      ],
      "name": "PerformCultivation",
      "type": "event"
    },
    {
      "anonymous": false,
      "inputs": [
        {
          "indexed": true,
          "name": "user",
          "type": "address"
        },
        {
          "indexed": true,
          "name": "batchNo",
          "type": "address"
        }
      ],
      "name": "DoneFarming",
      "type": "event"
    },
    {
      "anonymous": false,
      "inputs": [
        {
          "indexed": true,
          "name": "user",
          "type": "address"
        },
        {
          "indexed": true,
          "name": "batchNo",
          "type": "address"
        }
      ],
      "name": "DoneManufacturing",
      "type": "event"
    },
    {
      "anonymous": false,
      "inputs": [
        {
          "indexed": true,
          "name": "user",
          "type": "address"
        },
        {
          "indexed": true,
          "name": "batchNo",
          "type": "address"
        }
      ],
      "name": "DoneDistributing",
      "type": "event"
    },
    {
      "anonymous": false,
      "inputs": [
        {
          "indexed": true,
          "name": "user",
          "type": "address"
        },
        {
          "indexed": true,
          "name": "batchNo",
          "type": "address"
        }
      ],
      "name": "DoneRetailing",
      "type": "event"
    },
    {
      "anonymous": false,
      "inputs": [
        {
          "indexed": true,
          "name": "previousOwner",
          "type": "address"
        }
      ],
      "name": "OwnershipRenounced",
      "type": "event"
    },
    {
      "anonymous": false,
      "inputs": [
        {
          "indexed": true,
          "name": "previousOwner",
          "type": "address"
        },
        {
          "indexed": true,
          "name": "newOwner",
          "type": "address"
        }
      ],
      "name": "OwnershipTransferred",
      "type": "event"
    },
    {
      "constant": false,
      "inputs": [
        {
          "name": "_batchNo",
          "type": "address"
        }
      ],
      "name": "getNextAction",
      "outputs": [
        {
          "name": "action",
          "type": "string"
        }
      ],
      "payable": false,
      "stateMutability": "nonpayable",
      "type": "function"
    },
    {
      "constant": false,
      "inputs": [
        {
          "name": "_batchNo",
          "type": "address"
        }
      ],
      "name": "getBasicDetails",
      "outputs": [
        {
          "name": "registrationNo",
          "type": "string"
        },
        {
          "name": "farmerName",
          "type": "string"
        },
        {
          "name": "farmAddress",
          "type": "string"
        },
        {
          "name": "manufacturerName",
          "type": "string"
        },
        {
          "name": "distributorName",
          "type": "string"
        }
      ],
      "payable": false,
      "stateMutability": "nonpayable",
      "type": "function"
    },
    {
      "constant": false,
      "inputs": [
        {
          "name": "_registrationNo",
          "type": "string"
        },
        {
          "name": "_farmerName",
          "type": "string"
        },
        {
          "name": "_farmAddress",
          "type": "string"
        },
        {
          "name": "_manufacturerName",
          "type": "string"
        },
        {
          "name": "_distributorName",
          "type": "string"
        }
      ],
      "name": "addBasicDetails",
      "outputs": [
        {
          "name": "",
          "type": "address"
        }
      ],
      "payable": true,
      "stateMutability": "payable",
      "type": "function"
    },
    {
      "constant": false,
      "inputs": [
        {
          "name": "_batchNo",
          "type": "address"
        }
      ],
      "name": "getFarmerData",
      "outputs": [
        {
          "name": "cropVariety",
          "type": "string"
        },
        {
          "name": "temperatureUsed",
          "type": "string"
        },
        {
          "name": "humidity",
          "type": "string"
        }
      ],
      "payable": false,
      "stateMutability": "nonpayable",
      "type": "function"
    },
    {
      "constant": false,
      "inputs": [
        {
          "name": "_batchNo",
          "type": "address"
        },
        {
          "name": "_cropVariety",
          "type": "string"
        },
        {
          "name": "_temperatureUsed",
          "type": "string"
        },
        {
          "name": "_humidity",
          "type": "string"
        }
      ],
      "name": "updateFarmerData",
      "outputs": [
        {
          "name": "",
          "type": "bool"
        }
      ],
      "payable": true,
      "stateMutability": "payable",
      "type": "function"
    },
    {
      "constant": false,
      "inputs": [
        {
          "name": "_batchNo",
          "type": "address"
        }
      ],
      "name": "getManufacturerData",
      "outputs": [
        {
          "name": "quantity",
          "type": "uint256"
        },
        {
          "name": "destinationAddress",
          "type": "string"
        },
        {
          "name": "shipName",
          "type": "string"
        },
        {
          "name": "shipNo",
          "type": "string"
        },
        {
          "name": "departureDateTime",
          "type": "uint256"
        },
        {
          "name": "estimateDateTime",
          "type": "uint256"
        },
        {
          "name": "manufacturerId",
          "type": "uint256"
        }
      ],
      "payable": false,
      "stateMutability": "nonpayable",
      "type": "function"
    },
    {
      "constant": false,
      "inputs": [
        {
          "name": "_batchNo",
          "type": "address"
        },
        {
          "name": "_quantity",
          "type": "uint256"
        },
        {
          "name": "_destinationAddress",
          "type": "string"
        },
        {
          "name": "_shipName",
          "type": "string"
        },
        {
          "name": "_shipNo",
          "type": "string"
        },
        {
          "name": "_estimateDateTime",
          "type": "uint256"
        },
        {
          "name": "_manufacturerId",
          "type": "uint256"
        }
      ],
      "name": "updateManufacturerData",
      "outputs": [
        {
          "name": "",
          "type": "bool"
        }
      ],
      "payable": true,
      "stateMutability": "payable",
      "type": "function"
    },
    {
      "constant": false,
      "inputs": [
        {
          "name": "_batchNo",
          "type": "address"
        }
      ],
      "name": "getDistributorData",
      "outputs": [
        {
          "name": "quantity",
          "type": "uint256"
        },
        {
          "name": "shipName",
          "type": "string"
        },
        {
          "name": "shipNo",
          "type": "string"
        },
        {
          "name": "arrivalDateTime",
          "type": "uint256"
        },
        {
          "name": "warehouseName",
          "type": "string"
        },
        {
          "name": "warehouseAddress",
          "type": "string"
        },
        {
          "name": "distributorId",
          "type": "uint256"
        }
      ],
      "payable": false,
      "stateMutability": "nonpayable",
      "type": "function"
    },
    {
      "constant": false,
      "inputs": [
        {
          "name": "_batchNo",
          "type": "address"
        },
        {
          "name": "_quantity",
          "type": "uint256"
        },
        {
          "name": "_shipName",
          "type": "string"
        },
        {
          "name": "_shipNo",
          "type": "string"
        },
        {
          "name": "_warehouseName",
          "type": "string"
        },
        {
          "name": "_warehouseAddress",
          "type": "string"
        },
        {
          "name": "_distributorId",
          "type": "uint256"
        }
      ],
      "name": "updateDistributorData",
      "outputs": [
        {
          "name": "",
          "type": "bool"
        }
      ],
      "payable": true,
      "stateMutability": "payable",
      "type": "function"
    },
    {
      "constant": false,
      "inputs": [
        {
          "name": "_batchNo",
          "type": "address"
        }
      ],
      "name": "getRetailerData",
      "outputs": [
        {
          "name": "quantity",
          "type": "uint256"
        },
        {
          "name": "temperature",
          "type": "string"
        },
        {
          "name": "internalBatchNo",
          "type": "string"
        },
        {
          "name": "packageDateTime",
          "type": "uint256"
        },
        {
          "name": "retailerName",
          "type": "string"
        },
        {
          "name": "retailerAddress",
          "type": "string"
        }
      ],
      "payable": false,
      "stateMutability": "nonpayable",
      "type": "function"
    },
    {
      "constant": false,
      "inputs": [
        {
          "name": "_batchNo",
          "type": "address"
        },
        {
          "name": "_quantity",
          "type": "uint256"
        },
        {
          "name": "_temperature",
          "type": "string"
        },
        {
          "name": "_internalBatchNo",
          "type": "string"
        },
        {
          "name": "_packageDateTime",
          "type": "uint256"
        },
        {
          "name": "_retailerName",
          "type": "string"
        },
        {
          "name": "_retailerAddress",
          "type": "string"
        }
      ],
      "name": "updateRetailerData",
      "outputs": [
        {
          "name": "",
          "type": "bool"
        }
      ],
      "payable": true,
      "stateMutability": "payable",
      "type": "function"
    }
  ],
  "bytecode": "0x608060405234801561001057600080fd5b5060405162004b2438038062004b248339818101604052602081101561003557600080fd5b8101908080519060200190929190505050336000806101000a81548173ffffffffffffffffffffffffffffffffffffffff021916908373ffffffffffffffffffffffffffffffffffffffff16021790555080600160006101000a81548173ffffffffffffffffffffffffffffffffffffffff021916908373ffffffffffffffffffffffffffffffffffffffff16021790555050614a4c80620000d86000396000f3fe6080604052600436106100dd5760003560e01c80636a7352d51161007f578063d8af713911610059578063d8af7139146111fd578063e85d5c6a146114c9578063f2997d7614611708578063f2fde38b14611982576100dd565b80636a7352d514610f73578063715018a61461118f5780638da5cb5b146111a6576100dd565b806335057b6b116100bb57806335057b6b146107f25780634b0b4c5f146109b05780634b20512214610b525780634d6b5e0014610ea9576100dd565b8063161d5c1b146100e2578063299ee3ac1461030557806331732f7514610526575b600080fd5b3480156100ee57600080fd5b506101316004803603602081101561010557600080fd5b81019080803573ffffffffffffffffffffffffffffffffffffffff1690602001909291905050506119d3565b604051808881526020018060200180602001878152602001806020018060200186815260200185810385528b818151815260200191508051906020019080838360005b8381101561018f578082015181840152602081019050610174565b50505050905090810190601f1680156101bc5780820380516001836020036101000a031916815260200191505b5085810384528a818151815260200191508051906020019080838360005b838110156101f55780820151818401526020810190506101da565b50505050905090810190601f1680156102225780820380516001836020036101000a031916815260200191505b50858103835288818151815260200191508051906020019080838360005b8381101561025b578082015181840152602081019050610240565b50505050905090810190601f1680156102885780820380516001836020036101000a031916815260200191505b50858103825287818151815260200191508051906020019080838360005b838110156102c15780820151818401526020810190506102a6565b50505050905090810190601f1680156102ee5780820380516001836020036101000a031916815260200191505b509b50505050505050505050505060405180910390f35b61050c6004803603608081101561031b57600080fd5b81019080803573ffffffffffffffffffffffffffffffffffffffff1690602001909291908035906020019064010000000081111561035857600080fd5b82018360208201111561036a57600080fd5b8035906020019184600183028401116401000000008311171561038c57600080fd5b91908080601f016020809104026020016040519081016040528093929190818152602001838380828437600081840152601f19601f820116905080830192505050505050509192919290803590602001906401000000008111156103ef57600080fd5b82018360208201111561040157600080fd5b8035906020019184600183028401116401000000008311171561042357600080fd5b91908080601f016020809104026020016040519081016040528093929190818152602001838380828437600081840152601f19601f8201169050808301925050505050505091929192908035906020019064010000000081111561048657600080fd5b82018360208201111561049857600080fd5b803590602001918460018302840111640100000000831117156104ba57600080fd5b91908080601f016020809104026020016040519081016040528093929190818152602001838380828437600081840152601f19601f820116905080830192505050505050509192919290505050611c5b565b604051808215151515815260200191505060405180910390f35b6107d8600480360360e081101561053c57600080fd5b81019080803573ffffffffffffffffffffffffffffffffffffffff169060200190929190803590602001909291908035906020019064010000000081111561058357600080fd5b82018360208201111561059557600080fd5b803590602001918460018302840111640100000000831117156105b757600080fd5b91908080601f016020809104026020016040519081016040528093929190818152602001838380828437600081840152601f19601f8201169050808301925050505050505091929192908035906020019064010000000081111561061a57600080fd5b82018360208201111561062c57600080fd5b8035906020019184600183028401116401000000008311171561064e57600080fd5b91908080601f016020809104026020016040519081016040528093929190818152602001838380828437600081840152601f19601f820116905080830192505050505050509192919290803590602001906401000000008111156106b157600080fd5b8201836020820111156106c357600080fd5b803590602001918460018302840111640100000000831117156106e557600080fd5b91908080601f016020809104026020016040519081016040528093929190818152602001838380828437600081840152601f19601f8201169050808301925050505050505091929192908035906020019064010000000081111561074857600080fd5b82018360208201111561075a57600080fd5b8035906020019184600183028401116401000000008311171561077c57600080fd5b91908080601f016020809104026020016040519081016040528093929190818152602001838380828437600081840152601f19601f82011690508083019250505050505050919291929080359060200190929190505050612361565b604051808215151515815260200191505060405180910390f35b3480156107fe57600080fd5b506108416004803603602081101561081557600080fd5b81019080803573ffffffffffffffffffffffffffffffffffffffff169060200190929190505050612ae7565b6040518088815260200180602001806020018060200187815260200186815260200185815260200184810384528a818151815260200191508051906020019080838360005b838110156108a1578082015181840152602081019050610886565b50505050905090810190601f1680156108ce5780820380516001836020036101000a031916815260200191505b50848103835289818151815260200191508051906020019080838360005b838110156109075780820151818401526020810190506108ec565b50505050905090810190601f1680156109345780820380516001836020036101000a031916815260200191505b50848103825288818151815260200191508051906020019080838360005b8381101561096d578082015181840152602081019050610952565b50505050905090810190601f16801561099a5780820380516001836020036101000a031916815260200191505b509a505050505050505050505060405180910390f35b3480156109bc57600080fd5b506109ff600480360360208110156109d357600080fd5b81019080803573ffffffffffffffffffffffffffffffffffffffff169060200190929190505050612d2a565b60405180806020018060200180602001848103845287818151815260200191508051906020019080838360005b83811015610a47578082015181840152602081019050610a2c565b50505050905090810190601f168015610a745780820380516001836020036101000a031916815260200191505b50848103835286818151815260200191508051906020019080838360005b83811015610aad578082015181840152602081019050610a92565b50505050905090810190601f168015610ada5780820380516001836020036101000a031916815260200191505b50848103825285818151815260200191508051906020019080838360005b83811015610b13578082015181840152602081019050610af8565b50505050905090810190601f168015610b405780820380516001836020036101000a031916815260200191505b50965050505050505060405180910390f35b610e67600480360360a0811015610b6857600080fd5b8101908080359060200190640100000000811115610b8557600080fd5b820183602082011115610b9757600080fd5b80359060200191846001830284011164010000000083111715610bb957600080fd5b91908080601f016020809104026020016040519081016040528093929190818152602001838380828437600081840152601f19601f82011690508083019250505050505050919291929080359060200190640100000000811115610c1c57600080fd5b820183602082011115610c2e57600080fd5b80359060200191846001830284011164010000000083111715610c5057600080fd5b91908080601f016020809104026020016040519081016040528093929190818152602001838380828437600081840152601f19601f82011690508083019250505050505050919291929080359060200190640100000000811115610cb357600080fd5b820183602082011115610cc557600080fd5b80359060200191846001830284011164010000000083111715610ce757600080fd5b91908080601f016020809104026020016040519081016040528093929190818152602001838380828437600081840152601f19601f82011690508083019250505050505050919291929080359060200190640100000000811115610d4a57600080fd5b820183602082011115610d5c57600080fd5b80359060200191846001830284011164010000000083111715610d7e57600080fd5b91908080601f016020809104026020016040519081016040528093929190818152602001838380828437600081840152601f19601f82011690508083019250505050505050919291929080359060200190640100000000811115610de157600080fd5b820183602082011115610df357600080fd5b80359060200191846001830284011164010000000083111715610e1557600080fd5b91908080601f016020809104026020016040519081016040528093929190818152602001838380828437600081840152601f19601f820116905080830192505050505050509192919290505050612f1b565b604051808273ffffffffffffffffffffffffffffffffffffffff1673ffffffffffffffffffffffffffffffffffffffff16815260200191505060405180910390f35b348015610eb557600080fd5b50610ef860048036036020811015610ecc57600080fd5b81019080803573ffffffffffffffffffffffffffffffffffffffff1690602001909291905050506132aa565b6040518080602001828103825283818151815260200191508051906020019080838360005b83811015610f38578082015181840152602081019050610f1d565b50505050905090810190601f168015610f655780820380516001836020036101000a031916815260200191505b509250505060405180910390f35b348015610f7f57600080fd5b50610fc260048036036020811015610f9657600080fd5b81019080803573ffffffffffffffffffffffffffffffffffffffff1690602001909291905050506133e8565b604051808781526020018060200180602001868152602001806020018060200185810385528a818151815260200191508051906020019080838360005b8381101561101a578082015181840152602081019050610fff565b50505050905090810190601f1680156110475780820380516001836020036101000a031916815260200191505b50858103845289818151815260200191508051906020019080838360005b83811015611080578082015181840152602081019050611065565b50505050905090810190601f1680156110ad5780820380516001836020036101000a031916815260200191505b50858103835287818151815260200191508051906020019080838360005b838110156110e65780820151818401526020810190506110cb565b50505050905090810190601f1680156111135780820380516001836020036101000a031916815260200191505b50858103825286818151815260200191508051906020019080838360005b8381101561114c578082015181840152602081019050611131565b50505050905090810190601f1680156111795780820380516001836020036101000a031916815260200191505b509a505050505050505050505060405180910390f35b34801561119b57600080fd5b506111a4613658565b005b3480156111b257600080fd5b506111bb613758565b604051808273ffffffffffffffffffffffffffffffffffffffff1673ffffffffffffffffffffffffffffffffffffffff16815260200191505060405180910390f35b6114af600480360360e081101561121357600080fd5b81019080803573ffffffffffffffffffffffffffffffffffffffff169060200190929190803590602001909291908035906020019064010000000081111561125a57600080fd5b82018360208201111561126c57600080fd5b8035906020019184600183028401116401000000008311171561128e57600080fd5b91908080601f016020809104026020016040519081016040528093929190818152602001838380828437600081840152601f19601f820116905080830192505050505050509192919290803590602001906401000000008111156112f157600080fd5b82018360208201111561130357600080fd5b8035906020019184600183028401116401000000008311171561132557600080fd5b91908080601f016020809104026020016040519081016040528093929190818152602001838380828437600081840152601f19601f820116905080830192505050505050509192919290803590602001909291908035906020019064010000000081111561139257600080fd5b8201836020820111156113a457600080fd5b803590602001918460018302840111640100000000831117156113c657600080fd5b91908080601f016020809104026020016040519081016040528093929190818152602001838380828437600081840152601f19601f8201169050808301925050505050505091929192908035906020019064010000000081111561142957600080fd5b82018360208201111561143b57600080fd5b8035906020019184600183028401116401000000008311171561145d57600080fd5b91908080601f016020809104026020016040519081016040528093929190818152602001838380828437600081840152601f19601f82011690508083019250505050505050919291929050505061377d565b604051808215151515815260200191505060405180910390f35b6116ee600480360360e08110156114df57600080fd5b81019080803573ffffffffffffffffffffffffffffffffffffffff169060200190929190803590602001909291908035906020019064010000000081111561152657600080fd5b82018360208201111561153857600080fd5b8035906020019184600183028401116401000000008311171561155a57600080fd5b91908080601f016020809104026020016040519081016040528093929190818152602001838380828437600081840152601f19601f820116905080830192505050505050509192919290803590602001906401000000008111156115bd57600080fd5b8201836020820111156115cf57600080fd5b803590602001918460018302840111640100000000831117156115f157600080fd5b91908080601f016020809104026020016040519081016040528093929190818152602001838380828437600081840152601f19601f8201169050808301925050505050505091929192908035906020019064010000000081111561165457600080fd5b82018360208201111561166657600080fd5b8035906020019184600183028401116401000000008311171561168857600080fd5b91908080601f016020809104026020016040519081016040528093929190818152602001838380828437600081840152601f19601f8201169050808301925050505050505091929192908035906020019092919080359060200190929190505050613f03565b604051808215151515815260200191505060405180910390f35b34801561171457600080fd5b506117576004803603602081101561172b57600080fd5b81019080803573ffffffffffffffffffffffffffffffffffffffff169060200190929190505050614624565b60405180806020018060200180602001806020018060200186810386528b818151815260200191508051906020019080838360005b838110156117a757808201518184015260208101905061178c565b50505050905090810190601f1680156117d45780820380516001836020036101000a031916815260200191505b5086810385528a818151815260200191508051906020019080838360005b8381101561180d5780820151818401526020810190506117f2565b50505050905090810190601f16801561183a5780820380516001836020036101000a031916815260200191505b50868103845289818151815260200191508051906020019080838360005b83811015611873578082015181840152602081019050611858565b50505050905090810190601f1680156118a05780820380516001836020036101000a031916815260200191505b50868103835288818151815260200191508051906020019080838360005b838110156118d95780820151818401526020810190506118be565b50505050905090810190601f1680156119065780820380516001836020036101000a031916815260200191505b50868103825287818151815260200191508051906020019080838360005b8381101561193f578082015181840152602081019050611924565b50505050905090810190601f16801561196c5780820380516001836020036101000a031916815260200191505b509a505050505050505050505060405180910390f35b34801561198e57600080fd5b506119d1600480360360208110156119a557600080fd5b81019080803573ffffffffffffffffffffffffffffffffffffffff1690602001909291905050506148c6565b005b600060608060006060806000600160009054906101000a900473ffffffffffffffffffffffffffffffffffffffff1673ffffffffffffffffffffffffffffffffffffffff1663161d5c1b896040518263ffffffff1660e01b8152600401808273ffffffffffffffffffffffffffffffffffffffff1673ffffffffffffffffffffffffffffffffffffffff168152602001915050600060405180830381600087803b158015611a8057600080fd5b505af1158015611a94573d6000803e3d6000fd5b505050506040513d6000823e3d601f19601f8201168201806040525060e0811015611abe57600080fd5b81019080805190602001909291908051640100000000811115611ae057600080fd5b82810190506020810184811115611af657600080fd5b8151856001820283011164010000000082111715611b1357600080fd5b50509291906020018051640100000000811115611b2f57600080fd5b82810190506020810184811115611b4557600080fd5b8151856001820283011164010000000082111715611b6257600080fd5b5050929190602001805190602001909291908051640100000000811115611b8857600080fd5b82810190506020810184811115611b9e57600080fd5b8151856001820283011164010000000082111715611bbb57600080fd5b50509291906020018051640100000000811115611bd757600080fd5b82810190506020810184811115611bed57600080fd5b8151856001820283011164010000000082111715611c0a57600080fd5b505092919060200180519060200190929190505050809750819850829950839a50849b50859c50869d5050505050505050868686868686869650965096509650965096509650919395979092949650565b6000846040518060400160405280600681526020017f4641524d45520000000000000000000000000000000000000000000000000000815250806040516020018082805190602001908083835b60208310611ccb5780518252602082019150602081019050602083039250611ca8565b6001836020036101000a03801982511681845116808217855250505050505090500191505060405160208183030381529060405280519060200120600160009054906101000a900473ffffffffffffffffffffffffffffffffffffffff1673ffffffffffffffffffffffffffffffffffffffff166327820851336040518263ffffffff1660e01b8152600401808273ffffffffffffffffffffffffffffffffffffffff1673ffffffffffffffffffffffffffffffffffffffff168152602001915050600060405180830381600087803b158015611da757600080fd5b505af1158015611dbb573d6000803e3d6000fd5b505050506040513d6000823e3d601f19601f820116820180604052506020811015611de557600080fd5b810190808051640100000000811115611dfd57600080fd5b82810190506020810184811115611e1357600080fd5b8151856001820283011164010000000082111715611e3057600080fd5b50509291905050506040516020018082805190602001908083835b60208310611e6e5780518252602082019150602081019050602083039250611e4b565b6001836020036101000a0380198251168184511680821785525050505050509050019150506040516020818303038152906040528051906020012014611eb357600080fd5b806040516020018082805190602001908083835b60208310611eea5780518252602082019150602081019050602083039250611ec7565b6001836020036101000a03801982511681845116808217855250505050505090500191505060405160208183030381529060405280519060200120600160009054906101000a900473ffffffffffffffffffffffffffffffffffffffff1673ffffffffffffffffffffffffffffffffffffffff16634d6b5e00846040518263ffffffff1660e01b8152600401808273ffffffffffffffffffffffffffffffffffffffff1673ffffffffffffffffffffffffffffffffffffffff168152602001915050600060405180830381600087803b158015611fc657600080fd5b505af1158015611fda573d6000803e3d6000fd5b505050506040513d6000823e3d601f19601f82011682018060405250602081101561200457600080fd5b81019080805164010000000081111561201c57600080fd5b8281019050602081018481111561203257600080fd5b815185600182028301116401000000008211171561204f57600080fd5b50509291905050506040516020018082805190602001908083835b6020831061208d578051825260208201915060208101905060208303925061206a565b6001836020036101000a03801982511681845116808217855250505050505090500191505060405160208183030381529060405280519060200120146120d257600080fd5b6000600160009054906101000a900473ffffffffffffffffffffffffffffffffffffffff1673ffffffffffffffffffffffffffffffffffffffff166354899082898989896040518563ffffffff1660e01b8152600401808573ffffffffffffffffffffffffffffffffffffffff1673ffffffffffffffffffffffffffffffffffffffff168152602001806020018060200180602001848103845287818151815260200191508051906020019080838360005b8381101561219f578082015181840152602081019050612184565b50505050905090810190601f1680156121cc5780820380516001836020036101000a031916815260200191505b50848103835286818151815260200191508051906020019080838360005b838110156122055780820151818401526020810190506121ea565b50505050905090810190601f1680156122325780820380516001836020036101000a031916815260200191505b50848103825285818151815260200191508051906020019080838360005b8381101561226b578082015181840152602081019050612250565b50505050905090810190601f1680156122985780820380516001836020036101000a031916815260200191505b50975050505050505050602060405180830381600087803b1580156122bc57600080fd5b505af11580156122d0573d6000803e3d6000fd5b505050506040513d60208110156122e657600080fd5b810190808051906020019092919050505090508773ffffffffffffffffffffffffffffffffffffffff163373ffffffffffffffffffffffffffffffffffffffff167f01f89f713f2a9c9e18f2809d3884ef004f5f81beb7c889bce0df92f672005fe760405160405180910390a3809350505050949350505050565b6000876040518060400160405280600b81526020017f4449535452494255544f52000000000000000000000000000000000000000000815250806040516020018082805190602001908083835b602083106123d157805182526020820191506020810190506020830392506123ae565b6001836020036101000a03801982511681845116808217855250505050505090500191505060405160208183030381529060405280519060200120600160009054906101000a900473ffffffffffffffffffffffffffffffffffffffff1673ffffffffffffffffffffffffffffffffffffffff166327820851336040518263ffffffff1660e01b8152600401808273ffffffffffffffffffffffffffffffffffffffff1673ffffffffffffffffffffffffffffffffffffffff168152602001915050600060405180830381600087803b1580156124ad57600080fd5b505af11580156124c1573d6000803e3d6000fd5b505050506040513d6000823e3d601f19601f8201168201806040525060208110156124eb57600080fd5b81019080805164010000000081111561250357600080fd5b8281019050602081018481111561251957600080fd5b815185600182028301116401000000008211171561253657600080fd5b50509291905050506040516020018082805190602001908083835b602083106125745780518252602082019150602081019050602083039250612551565b6001836020036101000a03801982511681845116808217855250505050505090500191505060405160208183030381529060405280519060200120146125b957600080fd5b806040516020018082805190602001908083835b602083106125f057805182526020820191506020810190506020830392506125cd565b6001836020036101000a03801982511681845116808217855250505050505090500191505060405160208183030381529060405280519060200120600160009054906101000a900473ffffffffffffffffffffffffffffffffffffffff1673ffffffffffffffffffffffffffffffffffffffff16634d6b5e00846040518263ffffffff1660e01b8152600401808273ffffffffffffffffffffffffffffffffffffffff1673ffffffffffffffffffffffffffffffffffffffff168152602001915050600060405180830381600087803b1580156126cc57600080fd5b505af11580156126e0573d6000803e3d6000fd5b505050506040513d6000823e3d601f19601f82011682018060405250602081101561270a57600080fd5b81019080805164010000000081111561272257600080fd5b8281019050602081018481111561273857600080fd5b815185600182028301116401000000008211171561275557600080fd5b50509291905050506040516020018082805190602001908083835b602083106127935780518252602082019150602081019050602083039250612770565b6001836020036101000a03801982511681845116808217855250505050505090500191505060405160208183030381529060405280519060200120146127d857600080fd5b6000600160009054906101000a900473ffffffffffffffffffffffffffffffffffffffff1673ffffffffffffffffffffffffffffffffffffffff1663e8269a698c8c8c8c8c8c8c6040518863ffffffff1660e01b8152600401808873ffffffffffffffffffffffffffffffffffffffff1673ffffffffffffffffffffffffffffffffffffffff1681526020018781526020018060200180602001806020018060200186815260200185810385528a818151815260200191508051906020019080838360005b838110156128b857808201518184015260208101905061289d565b50505050905090810190601f1680156128e55780820380516001836020036101000a031916815260200191505b50858103845289818151815260200191508051906020019080838360005b8381101561291e578082015181840152602081019050612903565b50505050905090810190601f16801561294b5780820380516001836020036101000a031916815260200191505b50858103835288818151815260200191508051906020019080838360005b83811015612984578082015181840152602081019050612969565b50505050905090810190601f1680156129b15780820380516001836020036101000a031916815260200191505b50858103825287818151815260200191508051906020019080838360005b838110156129ea5780820151818401526020810190506129cf565b50505050905090810190601f168015612a175780820380516001836020036101000a031916815260200191505b509b505050505050505050505050602060405180830381600087803b158015612a3f57600080fd5b505af1158015612a53573d6000803e3d6000fd5b505050506040513d6020811015612a6957600080fd5b810190808051906020019092919050505090508a73ffffffffffffffffffffffffffffffffffffffff163373ffffffffffffffffffffffffffffffffffffffff167f4958673b234a72e616bb3bae8c78645588a50d8a6d2114980abeaf99424ea83760405160405180910390a3809350505050979650505050505050565b600060608060606000806000600160009054906101000a900473ffffffffffffffffffffffffffffffffffffffff1673ffffffffffffffffffffffffffffffffffffffff166335057b6b896040518263ffffffff1660e01b8152600401808273ffffffffffffffffffffffffffffffffffffffff1673ffffffffffffffffffffffffffffffffffffffff168152602001915050600060405180830381600087803b158015612b9457600080fd5b505af1158015612ba8573d6000803e3d6000fd5b505050506040513d6000823e3d601f19601f8201168201806040525060e0811015612bd257600080fd5b81019080805190602001909291908051640100000000811115612bf457600080fd5b82810190506020810184811115612c0a57600080fd5b8151856001820283011164010000000082111715612c2757600080fd5b50509291906020018051640100000000811115612c4357600080fd5b82810190506020810184811115612c5957600080fd5b8151856001820283011164010000000082111715612c7657600080fd5b50509291906020018051640100000000811115612c9257600080fd5b82810190506020810184811115612ca857600080fd5b8151856001820283011164010000000082111715612cc557600080fd5b5050929190602001805190602001909291908051906020019092919080519060200190929190505050809750819850829950839a50849b50859c50869d5050505050505050868686868686869650965096509650965096509650919395979092949650565b6060806060600160009054906101000a900473ffffffffffffffffffffffffffffffffffffffff1673ffffffffffffffffffffffffffffffffffffffff16634b0b4c5f856040518263ffffffff1660e01b8152600401808273ffffffffffffffffffffffffffffffffffffffff1673ffffffffffffffffffffffffffffffffffffffff168152602001915050600060405180830381600087803b158015612dd057600080fd5b505af1158015612de4573d6000803e3d6000fd5b505050506040513d6000823e3d601f19601f820116820180604052506060811015612e0e57600080fd5b810190808051640100000000811115612e2657600080fd5b82810190506020810184811115612e3c57600080fd5b8151856001820283011164010000000082111715612e5957600080fd5b50509291906020018051640100000000811115612e7557600080fd5b82810190506020810184811115612e8b57600080fd5b8151856001820283011164010000000082111715612ea857600080fd5b50509291906020018051640100000000811115612ec457600080fd5b82810190506020810184811115612eda57600080fd5b8151856001820283011164010000000082111715612ef757600080fd5b50509291905050508093508194508295505050508282829250925092509193909250565b60008060009054906101000a900473ffffffffffffffffffffffffffffffffffffffff1673ffffffffffffffffffffffffffffffffffffffff163373ffffffffffffffffffffffffffffffffffffffff1614612f7657600080fd5b6000600160009054906101000a900473ffffffffffffffffffffffffffffffffffffffff1673ffffffffffffffffffffffffffffffffffffffff1663cf37467488888888886040518663ffffffff1660e01b815260040180806020018060200180602001806020018060200186810386528b818151815260200191508051906020019080838360005b8381101561301a578082015181840152602081019050612fff565b50505050905090810190601f1680156130475780820380516001836020036101000a031916815260200191505b5086810385528a818151815260200191508051906020019080838360005b83811015613080578082015181840152602081019050613065565b50505050905090810190601f1680156130ad5780820380516001836020036101000a031916815260200191505b50868103845289818151815260200191508051906020019080838360005b838110156130e65780820151818401526020810190506130cb565b50505050905090810190601f1680156131135780820380516001836020036101000a031916815260200191505b50868103835288818151815260200191508051906020019080838360005b8381101561314c578082015181840152602081019050613131565b50505050905090810190601f1680156131795780820380516001836020036101000a031916815260200191505b50868103825287818151815260200191508051906020019080838360005b838110156131b2578082015181840152602081019050613197565b50505050905090810190601f1680156131df5780820380516001836020036101000a031916815260200191505b509a5050505050505050505050602060405180830381600087803b15801561320657600080fd5b505af115801561321a573d6000803e3d6000fd5b505050506040513d602081101561323057600080fd5b810190808051906020019092919050505090508073ffffffffffffffffffffffffffffffffffffffff163373ffffffffffffffffffffffffffffffffffffffff167ffb0cd0976d848f2ad8c4a6963c1295c96186b2f3919c8204b4fcb350fc36a31f60405160405180910390a38091505095945050505050565b6060600160009054906101000a900473ffffffffffffffffffffffffffffffffffffffff1673ffffffffffffffffffffffffffffffffffffffff16634d6b5e00836040518263ffffffff1660e01b8152600401808273ffffffffffffffffffffffffffffffffffffffff1673ffffffffffffffffffffffffffffffffffffffff168152602001915050600060405180830381600087803b15801561334d57600080fd5b505af1158015613361573d6000803e3d6000fd5b505050506040513d6000823e3d601f19601f82011682018060405250602081101561338b57600080fd5b8101908080516401000000008111156133a357600080fd5b828101905060208101848111156133b957600080fd5b81518560018202830111640100000000821117156133d657600080fd5b50509291905050509050809050919050565b60006060806000606080600160009054906101000a900473ffffffffffffffffffffffffffffffffffffffff1673ffffffffffffffffffffffffffffffffffffffff16636a7352d5886040518263ffffffff1660e01b8152600401808273ffffffffffffffffffffffffffffffffffffffff1673ffffffffffffffffffffffffffffffffffffffff168152602001915050600060405180830381600087803b15801561349357600080fd5b505af11580156134a7573d6000803e3d6000fd5b505050506040513d6000823e3d601f19601f8201168201806040525060c08110156134d157600080fd5b810190808051906020019092919080516401000000008111156134f357600080fd5b8281019050602081018481111561350957600080fd5b815185600182028301116401000000008211171561352657600080fd5b5050929190602001805164010000000081111561354257600080fd5b8281019050602081018481111561355857600080fd5b815185600182028301116401000000008211171561357557600080fd5b505092919060200180519060200190929190805164010000000081111561359b57600080fd5b828101905060208101848111156135b157600080fd5b81518560018202830111640100000000821117156135ce57600080fd5b505092919060200180516401000000008111156135ea57600080fd5b8281019050602081018481111561360057600080fd5b815185600182028301116401000000008211171561361d57600080fd5b5050929190505050809650819750829850839950849a50859b5050505050505085858585858595509550955095509550955091939550919395565b6000809054906101000a900473ffffffffffffffffffffffffffffffffffffffff1673ffffffffffffffffffffffffffffffffffffffff163373ffffffffffffffffffffffffffffffffffffffff16146136b157600080fd5b6000809054906101000a900473ffffffffffffffffffffffffffffffffffffffff1673ffffffffffffffffffffffffffffffffffffffff167ff8df31144d9c2f0f6b59d69b8b98abd5459d07f2742c4df920b25aae33c6482060405160405180910390a260008060006101000a81548173ffffffffffffffffffffffffffffffffffffffff021916908373ffffffffffffffffffffffffffffffffffffffff160217905550565b6000809054906101000a900473ffffffffffffffffffffffffffffffffffffffff1681565b6000876040518060400160405280600881526020017f52455441494c4552000000000000000000000000000000000000000000000000815250806040516020018082805190602001908083835b602083106137ed57805182526020820191506020810190506020830392506137ca565b6001836020036101000a03801982511681845116808217855250505050505090500191505060405160208183030381529060405280519060200120600160009054906101000a900473ffffffffffffffffffffffffffffffffffffffff1673ffffffffffffffffffffffffffffffffffffffff166327820851336040518263ffffffff1660e01b8152600401808273ffffffffffffffffffffffffffffffffffffffff1673ffffffffffffffffffffffffffffffffffffffff168152602001915050600060405180830381600087803b1580156138c957600080fd5b505af11580156138dd573d6000803e3d6000fd5b505050506040513d6000823e3d601f19601f82011682018060405250602081101561390757600080fd5b81019080805164010000000081111561391f57600080fd5b8281019050602081018481111561393557600080fd5b815185600182028301116401000000008211171561395257600080fd5b50509291905050506040516020018082805190602001908083835b60208310613990578051825260208201915060208101905060208303925061396d565b6001836020036101000a03801982511681845116808217855250505050505090500191505060405160208183030381529060405280519060200120146139d557600080fd5b806040516020018082805190602001908083835b60208310613a0c57805182526020820191506020810190506020830392506139e9565b6001836020036101000a03801982511681845116808217855250505050505090500191505060405160208183030381529060405280519060200120600160009054906101000a900473ffffffffffffffffffffffffffffffffffffffff1673ffffffffffffffffffffffffffffffffffffffff16634d6b5e00846040518263ffffffff1660e01b8152600401808273ffffffffffffffffffffffffffffffffffffffff1673ffffffffffffffffffffffffffffffffffffffff168152602001915050600060405180830381600087803b158015613ae857600080fd5b505af1158015613afc573d6000803e3d6000fd5b505050506040513d6000823e3d601f19601f820116820180604052506020811015613b2657600080fd5b810190808051640100000000811115613b3e57600080fd5b82810190506020810184811115613b5457600080fd5b8151856001820283011164010000000082111715613b7157600080fd5b50509291905050506040516020018082805190602001908083835b60208310613baf5780518252602082019150602081019050602083039250613b8c565b6001836020036101000a0380198251168184511680821785525050505050509050019150506040516020818303038152906040528051906020012014613bf457600080fd5b6000600160009054906101000a900473ffffffffffffffffffffffffffffffffffffffff1673ffffffffffffffffffffffffffffffffffffffff1663982a917b8c8c8c8c8c8c8c6040518863ffffffff1660e01b8152600401808873ffffffffffffffffffffffffffffffffffffffff1673ffffffffffffffffffffffffffffffffffffffff1681526020018781526020018060200180602001868152602001806020018060200185810385528a818151815260200191508051906020019080838360005b83811015613cd4578082015181840152602081019050613cb9565b50505050905090810190601f168015613d015780820380516001836020036101000a031916815260200191505b50858103845289818151815260200191508051906020019080838360005b83811015613d3a578082015181840152602081019050613d1f565b50505050905090810190601f168015613d675780820380516001836020036101000a031916815260200191505b50858103835287818151815260200191508051906020019080838360005b83811015613da0578082015181840152602081019050613d85565b50505050905090810190601f168015613dcd5780820380516001836020036101000a031916815260200191505b50858103825286818151815260200191508051906020019080838360005b83811015613e06578082015181840152602081019050613deb565b50505050905090810190601f168015613e335780820380516001836020036101000a031916815260200191505b509b505050505050505050505050602060405180830381600087803b158015613e5b57600080fd5b505af1158015613e6f573d6000803e3d6000fd5b505050506040513d6020811015613e8557600080fd5b810190808051906020019092919050505090508a73ffffffffffffffffffffffffffffffffffffffff163373ffffffffffffffffffffffffffffffffffffffff167fe5778724654be34ad6e69ca390ff330a32fa47dd6e66bbe2cc6068c9dff90c0f60405160405180910390a3809350505050979650505050505050565b6000876040518060400160405280600c81526020017f4d414e5546414354555245520000000000000000000000000000000000000000815250806040516020018082805190602001908083835b60208310613f735780518252602082019150602081019050602083039250613f50565b6001836020036101000a03801982511681845116808217855250505050505090500191505060405160208183030381529060405280519060200120600160009054906101000a900473ffffffffffffffffffffffffffffffffffffffff1673ffffffffffffffffffffffffffffffffffffffff166327820851336040518263ffffffff1660e01b8152600401808273ffffffffffffffffffffffffffffffffffffffff1673ffffffffffffffffffffffffffffffffffffffff168152602001915050600060405180830381600087803b15801561404f57600080fd5b505af1158015614063573d6000803e3d6000fd5b505050506040513d6000823e3d601f19601f82011682018060405250602081101561408d57600080fd5b8101908080516401000000008111156140a557600080fd5b828101905060208101848111156140bb57600080fd5b81518560018202830111640100000000821117156140d857600080fd5b50509291905050506040516020018082805190602001908083835b6020831061411657805182526020820191506020810190506020830392506140f3565b6001836020036101000a038019825116818451168082178552505050505050905001915050604051602081830303815290604052805190602001201461415b57600080fd5b806040516020018082805190602001908083835b60208310614192578051825260208201915060208101905060208303925061416f565b6001836020036101000a03801982511681845116808217855250505050505090500191505060405160208183030381529060405280519060200120600160009054906101000a900473ffffffffffffffffffffffffffffffffffffffff1673ffffffffffffffffffffffffffffffffffffffff16634d6b5e00846040518263ffffffff1660e01b8152600401808273ffffffffffffffffffffffffffffffffffffffff1673ffffffffffffffffffffffffffffffffffffffff168152602001915050600060405180830381600087803b15801561426e57600080fd5b505af1158015614282573d6000803e3d6000fd5b505050506040513d6000823e3d601f19601f8201168201806040525060208110156142ac57600080fd5b8101908080516401000000008111156142c457600080fd5b828101905060208101848111156142da57600080fd5b81518560018202830111640100000000821117156142f757600080fd5b50509291905050506040516020018082805190602001908083835b602083106143355780518252602082019150602081019050602083039250614312565b6001836020036101000a038019825116818451168082178552505050505050905001915050604051602081830303815290604052805190602001201461437a57600080fd5b6000600160009054906101000a900473ffffffffffffffffffffffffffffffffffffffff1673ffffffffffffffffffffffffffffffffffffffff1663e8530dba8c8c8c8c8c8c8c6040518863ffffffff1660e01b8152600401808873ffffffffffffffffffffffffffffffffffffffff1673ffffffffffffffffffffffffffffffffffffffff168152602001878152602001806020018060200180602001868152602001858152602001848103845289818151815260200191508051906020019080838360005b8381101561445c578082015181840152602081019050614441565b50505050905090810190601f1680156144895780820380516001836020036101000a031916815260200191505b50848103835288818151815260200191508051906020019080838360005b838110156144c25780820151818401526020810190506144a7565b50505050905090810190601f1680156144ef5780820380516001836020036101000a031916815260200191505b50848103825287818151815260200191508051906020019080838360005b8381101561452857808201518184015260208101905061450d565b50505050905090810190601f1680156145555780820380516001836020036101000a031916815260200191505b509a5050505050505050505050602060405180830381600087803b15801561457c57600080fd5b505af1158015614590573d6000803e3d6000fd5b505050506040513d60208110156145a657600080fd5b810190808051906020019092919050505090508a73ffffffffffffffffffffffffffffffffffffffff163373ffffffffffffffffffffffffffffffffffffffff167f2ba16cef6ef755e2a89722633c5ee79e9fa92529a645bdda29fcc666be3ffdd060405160405180910390a3809350505050979650505050505050565b6060806060806060600160009054906101000a900473ffffffffffffffffffffffffffffffffffffffff1673ffffffffffffffffffffffffffffffffffffffff1663f2997d76876040518263ffffffff1660e01b8152600401808273ffffffffffffffffffffffffffffffffffffffff1673ffffffffffffffffffffffffffffffffffffffff168152602001915050600060405180830381600087803b1580156146cd57600080fd5b505af11580156146e1573d6000803e3d6000fd5b505050506040513d6000823e3d601f19601f8201168201806040525060a081101561470b57600080fd5b81019080805164010000000081111561472357600080fd5b8281019050602081018481111561473957600080fd5b815185600182028301116401000000008211171561475657600080fd5b5050929190602001805164010000000081111561477257600080fd5b8281019050602081018481111561478857600080fd5b81518560018202830111640100000000821117156147a557600080fd5b505092919060200180516401000000008111156147c157600080fd5b828101905060208101848111156147d757600080fd5b81518560018202830111640100000000821117156147f457600080fd5b5050929190602001805164010000000081111561481057600080fd5b8281019050602081018481111561482657600080fd5b815185600182028301116401000000008211171561484357600080fd5b5050929190602001805164010000000081111561485f57600080fd5b8281019050602081018481111561487557600080fd5b815185600182028301116401000000008211171561489257600080fd5b5050929190505050809550819650829750839850849950505050505084848484849450945094509450945091939590929450565b6000809054906101000a900473ffffffffffffffffffffffffffffffffffffffff1673ffffffffffffffffffffffffffffffffffffffff163373ffffffffffffffffffffffffffffffffffffffff161461491f57600080fd5b600073ffffffffffffffffffffffffffffffffffffffff168173ffffffffffffffffffffffffffffffffffffffff16141561495957600080fd5b8073ffffffffffffffffffffffffffffffffffffffff166000809054906101000a900473ffffffffffffffffffffffffffffffffffffffff1673ffffffffffffffffffffffffffffffffffffffff167f8be0079c531659141344cd1fd0a4f28419497f9722a3daafe3b4186f6b6457e060405160405180910390a3806000806101000a81548173ffffffffffffffffffffffffffffffffffffffff021916908373ffffffffffffffffffffffffffffffffffffffff1602179055505056fea265627a7a72305820bf2efe1869137d64bcd99b3eaf7e90bf89a0b9248342ae2a4c3cce0fce54489164736f6c634300050a0032",
  "source": "pragma solidity ^0.5.10;\nimport \"./SupplyChainStorage.sol\";\nimport \"./Ownable.sol\";\n\ncontract CoffeeSupplyChain is Ownable\n{\n  \n    event PerformCultivation(address indexed user, address indexed batchNo);\n    event DoneFarming(address indexed user, address indexed batchNo);\n    event DoneManufacturing(address indexed user, address indexed batchNo);\n    event DoneDistributing(address indexed user, address indexed batchNo);\n    event DoneRetailing(address indexed user, address indexed batchNo);\n\n    \n    /*Modifier*/\n    modifier isValidPerformer(address batchNo, string memory role) {\n    \n        require(keccak256(abi.encodePacked(supplyChainStorage.getUserRole(msg.sender))) == keccak256(abi.encodePacked(role)));\n        require(keccak256(abi.encodePacked(supplyChainStorage.getNextAction(batchNo))) == keccak256(abi.encodePacked(role)));\n        _;\n    }\n    \n    /* Storage Variables */    \n    SupplyChainStorage supplyChainStorage;\n    \n    constructor(address _supplyChainAddress) public {\n        supplyChainStorage = SupplyChainStorage(_supplyChainAddress);\n    }\n    \n    \n    /* Get Next Action  */    \n\n    function getNextAction(address _batchNo) public returns(string memory action)\n    {\n       (action) = supplyChainStorage.getNextAction(_batchNo);\n       return (action);\n    }\n    \n\n    /* get Basic Details */\n    \n    function getBasicDetails(address _batchNo) public returns (string memory registrationNo,\n                                                                     string memory farmerName,\n                                                                     string memory farmAddress,\n                                                                     string memory manufacturerName,\n                                                                     string memory distributorName) {\n        /* Call Storage Contract */\n        (registrationNo, farmerName, farmAddress, manufacturerName, distributorName) = supplyChainStorage.getBasicDetails(_batchNo);  \n        return (registrationNo, farmerName, farmAddress, manufacturerName, distributorName);\n    }\n\n    /* perform Basic Cultivation */\n    \n    function addBasicDetails(string memory _registrationNo,\n                             string memory _farmerName,\n                             string memory _farmAddress,\n                             string memory _manufacturerName,\n                             string memory _distributorName\n                            ) public payable onlyOwner returns(address) {\n    \n        address batchNo = supplyChainStorage.setBasicDetails(_registrationNo,\n                                                            _farmerName,\n                                                            _farmAddress,\n                                                            _manufacturerName,\n                                                            _distributorName);\n        \n        emit PerformCultivation(msg.sender, batchNo); \n        \n        return (batchNo);\n    }                            \n    \n    /* get Farming */\n    \n    function getFarmerData(address _batchNo) public returns (string memory cropVariety, string memory temperatureUsed, string memory humidity) {\n        /* Call Storage Contract */\n        (cropVariety, temperatureUsed, humidity) =  supplyChainStorage.getFarmerData(_batchNo);  \n        return (cropVariety, temperatureUsed, humidity);\n    }\n    \n    /* perform Farming */\n    \n    function updateFarmerData(address _batchNo,\n                                string memory _cropVariety,\n                                string memory _temperatureUsed,\n                                string memory _humidity) \n                                public payable isValidPerformer(_batchNo,'FARMER') returns(bool) {\n                                    \n        /* Call Storage Contract */\n        bool status = supplyChainStorage.setFarmerData(_batchNo, _cropVariety, _temperatureUsed, _humidity);  \n        \n        emit DoneFarming(msg.sender, _batchNo);\n        return (status);\n    }\n    \n    /* get Manufacture */\n    \n    function getManufacturerData(address _batchNo) public returns (uint256 quantity,\n                                                                    string memory destinationAddress,\n                                                                    string memory shipName,\n                                                                    string memory shipNo,\n                                                                    uint256 departureDateTime,\n                                                                    uint256 estimateDateTime,\n                                                                    uint256 manufacturerId) {\n        /* Call Storage Contract */\n       (quantity,\n        destinationAddress,\n        shipName,\n        shipNo,\n        departureDateTime,\n        estimateDateTime,\n        manufacturerId) =  supplyChainStorage.getManufacturerData(_batchNo);  \n        \n        return (quantity,\n                destinationAddress,\n                shipName,\n                shipNo,\n                departureDateTime,\n                estimateDateTime,\n                manufacturerId);\n    }\n    \n    /* perform Manufacture */\n    \n    function updateManufacturerData(address _batchNo,\n                                uint256 _quantity,    \n                                string memory _destinationAddress,\n                                string memory _shipName,\n                                string memory _shipNo,\n                                uint256 _estimateDateTime,\n                                uint256 _manufacturerId) \n                                public payable isValidPerformer(_batchNo,'MANUFACTURER') returns(bool) {\n                                    \n        /* Call Storage Contract */\n        bool status = supplyChainStorage.setManufacturerData(_batchNo, _quantity, _destinationAddress, _shipName,_shipNo, _estimateDateTime,_manufacturerId);  \n        \n        emit DoneManufacturing(msg.sender, _batchNo);\n        return (status);\n    }\n    \n    /* get Distribution */\n    \n    function getDistributorData(address _batchNo) public returns (uint256 quantity,\n                                                                    string memory shipName,\n                                                                    string memory shipNo,\n                                                                    uint256 arrivalDateTime,\n                                                                    string memory warehouseName,\n                                                                    string memory warehouseAddress,\n                                                                    uint256 distributorId) {\n        /* Call Storage Contract */\n        (quantity,\n         shipName,\n         shipNo,\n         arrivalDateTime,\n         warehouseName,\n         warehouseAddress,\n         distributorId) =  supplyChainStorage.getDistributorData(_batchNo);  \n         \n         return (quantity,\n                 shipName,\n                 shipNo,\n                 arrivalDateTime,\n                 warehouseName,\n                 warehouseAddress,\n                 distributorId);\n        \n    }\n    \n    /* perform Distribution */\n    \n    function updateDistributorData(address _batchNo,\n                                uint256 _quantity, \n                                string memory _shipName,\n                                string memory _shipNo,\n                                string memory _warehouseName,\n                                string memory _warehouseAddress,\n                                uint256 _distributorId) \n                                public payable isValidPerformer(_batchNo,'DISTRIBUTOR') returns(bool) {\n                                    \n        /* Call Storage Contract */\n        bool status = supplyChainStorage.setDistributorData(_batchNo, _quantity, _shipName, _shipNo, _warehouseName,_warehouseAddress,_distributorId);  \n        \n        emit DoneDistributing(msg.sender, _batchNo);\n        return (status);\n    }\n    \n    \n    /* get Retailer */\n    \n    function getRetailerData(address _batchNo) public returns (uint256 quantity,\n                                                                    string memory temperature,\n                                                                    string memory internalBatchNo,\n                                                                    uint256 packageDateTime,\n                                                                    string memory retailerName,\n                                                                    string memory retailerAddress) {\n        /* Call Storage Contract */\n        (quantity,\n         temperature,\n         internalBatchNo,\n         packageDateTime,\n         retailerName,\n         retailerAddress) =  supplyChainStorage.getRetailerData(_batchNo);  \n         \n         return (quantity,\n                 temperature,\n                 internalBatchNo,\n                 packageDateTime,\n                 retailerName,\n                 retailerAddress);\n \n    }\n    \n    /* perform Retailing */\n    \n    function updateRetailerData(address _batchNo,\n                              uint256 _quantity, \n                              string memory _temperature,\n                              string memory _internalBatchNo,\n                              uint256 _packageDateTime,\n                              string memory _retailerName,\n                              string memory _retailerAddress) public payable isValidPerformer(_batchNo,'RETAILER') returns(bool) {\n                                    \n        /* Call Storage Contract */\n        bool status = supplyChainStorage.setRetailerData(_batchNo, \n                                                        _quantity, \n                                                        _temperature, \n                                                        _internalBatchNo,\n                                                        _packageDateTime,\n                                                        _retailerName,\n                                                        _retailerAddress);  \n        \n        emit DoneRetailing(msg.sender, _batchNo);\n        return (status);\n    }\n}",
  "sourcePath": "C:/Users/urshi/Desktop/coffeeSCM/contracts/CoffeeSupplyChain.sol",
  "compiler": {
    "name": "solc",
    "version": "0.5.10+commit.5a6ea5b1.Emscripten.clang"
  },
  "schemaVersion": "3.0.16",
  "updatedAt": "2019-10-30T09:07:35.331Z",
  "devdoc": {
    "methods": {
      "renounceOwnership()": {
        "details": "Allows the current owner to relinquish control of the contract.\r"
      },
      "transferOwnership(address)": {
        "details": "Allows the current owner to transfer control of the contract to a newOwner.\r",
        "params": {
          "newOwner": "The address to transfer ownership to.\r"
        }
      }
    }
  },
  "userdoc": {
    "methods": {}
  }
}