{
  "contractName": "SupplyChainStorage",
  "abi": [
    {
      "constant": true,
      "inputs": [],
      "name": "lastAccess",
      "outputs": [
        {
          "name": "",
          "type": "address"
        }
      ],
      "payable": false,
      "stateMutability": "view",
      "type": "function"
    },
    {
      "constant": false,
      "inputs": [],
      "name": "renounceOwnership",
      "outputs": [],
      "payable": false,
      "stateMutability": "nonpayable",
      "type": "function"
    },
    {
      "constant": true,
      "inputs": [],
      "name": "owner",
      "outputs": [
        {
          "name": "",
          "type": "address"
        }
      ],
      "payable": false,
      "stateMutability": "view",
      "type": "function"
    },
    {
      "constant": false,
      "inputs": [
        {
          "name": "newOwner",
          "type": "address"
        }
      ],
      "name": "transferOwnership",
      "outputs": [],
      "payable": false,
      "stateMutability": "nonpayable",
      "type": "function"
    },
    {
      "inputs": [],
      "payable": false,
      "stateMutability": "nonpayable",
      "type": "constructor"
    },
    {
      "anonymous": false,
      "inputs": [
        {
          "indexed": false,
          "name": "caller",
          "type": "address"
        }
      ],
      "name": "AuthorizedCaller",
      "type": "event"
    },
    {
      "anonymous": false,
      "inputs": [
        {
          "indexed": false,
          "name": "caller",
          "type": "address"
        }
      ],
      "name": "DeAuthorizedCaller",
      "type": "event"
    },
    {
      "anonymous": false,
      "inputs": [
        {
          "indexed": true,
          "name": "previousOwner",
          "type": "address"
        }
      ],
      "name": "OwnershipRenounced",
      "type": "event"
    },
    {
      "anonymous": false,
      "inputs": [
        {
          "indexed": true,
          "name": "previousOwner",
          "type": "address"
        },
        {
          "indexed": true,
          "name": "newOwner",
          "type": "address"
        }
      ],
      "name": "OwnershipTransferred",
      "type": "event"
    },
    {
      "constant": false,
      "inputs": [
        {
          "name": "_caller",
          "type": "address"
        }
      ],
      "name": "authorizeCaller",
      "outputs": [
        {
          "name": "",
          "type": "bool"
        }
      ],
      "payable": false,
      "stateMutability": "nonpayable",
      "type": "function"
    },
    {
      "constant": false,
      "inputs": [
        {
          "name": "_caller",
          "type": "address"
        }
      ],
      "name": "deAuthorizeCaller",
      "outputs": [
        {
          "name": "",
          "type": "bool"
        }
      ],
      "payable": false,
      "stateMutability": "nonpayable",
      "type": "function"
    },
    {
      "constant": false,
      "inputs": [
        {
          "name": "_userAddress",
          "type": "address"
        }
      ],
      "name": "getUserRole",
      "outputs": [
        {
          "name": "",
          "type": "string"
        }
      ],
      "payable": true,
      "stateMutability": "payable",
      "type": "function"
    },
    {
      "constant": false,
      "inputs": [
        {
          "name": "_batchNo",
          "type": "address"
        }
      ],
      "name": "getNextAction",
      "outputs": [
        {
          "name": "",
          "type": "string"
        }
      ],
      "payable": true,
      "stateMutability": "payable",
      "type": "function"
    },
    {
      "constant": false,
      "inputs": [
        {
          "name": "_userAddress",
          "type": "address"
        },
        {
          "name": "_name",
          "type": "string"
        },
        {
          "name": "_contactNo",
          "type": "string"
        },
        {
          "name": "_role",
          "type": "string"
        },
        {
          "name": "_isActive",
          "type": "bool"
        },
        {
          "name": "_profileHash",
          "type": "string"
        }
      ],
      "name": "setUser",
      "outputs": [
        {
          "name": "",
          "type": "bool"
        }
      ],
      "payable": false,
      "stateMutability": "nonpayable",
      "type": "function"
    },
    {
      "constant": false,
      "inputs": [
        {
          "name": "_userAddress",
          "type": "address"
        }
      ],
      "name": "getUser",
      "outputs": [
        {
          "name": "name",
          "type": "string"
        },
        {
          "name": "contactNo",
          "type": "string"
        },
        {
          "name": "role",
          "type": "string"
        },
        {
          "name": "isActive",
          "type": "bool"
        },
        {
          "name": "profileHash",
          "type": "string"
        }
      ],
      "payable": true,
      "stateMutability": "payable",
      "type": "function"
    },
    {
      "constant": false,
      "inputs": [
        {
          "name": "_batchNo",
          "type": "address"
        }
      ],
      "name": "getBasicDetails",
      "outputs": [
        {
          "name": "registrationNo",
          "type": "string"
        },
        {
          "name": "farmerName",
          "type": "string"
        },
        {
          "name": "farmAddress",
          "type": "string"
        },
        {
          "name": "manufacturerName",
          "type": "string"
        },
        {
          "name": "distributorName",
          "type": "string"
        }
      ],
      "payable": true,
      "stateMutability": "payable",
      "type": "function"
    },
    {
      "constant": false,
      "inputs": [
        {
          "name": "_registrationNo",
          "type": "string"
        },
        {
          "name": "_farmerName",
          "type": "string"
        },
        {
          "name": "_farmAddress",
          "type": "string"
        },
        {
          "name": "_manufacturerName",
          "type": "string"
        },
        {
          "name": "_distributorName",
          "type": "string"
        }
      ],
      "name": "setBasicDetails",
      "outputs": [
        {
          "name": "",
          "type": "address"
        }
      ],
      "payable": false,
      "stateMutability": "nonpayable",
      "type": "function"
    },
    {
      "constant": false,
      "inputs": [
        {
          "name": "batchNo",
          "type": "address"
        },
        {
          "name": "_cropVariety",
          "type": "string"
        },
        {
          "name": "_temperatureUsed",
          "type": "string"
        },
        {
          "name": "_humidity",
          "type": "string"
        }
      ],
      "name": "setFarmerData",
      "outputs": [
        {
          "name": "",
          "type": "bool"
        }
      ],
      "payable": false,
      "stateMutability": "nonpayable",
      "type": "function"
    },
    {
      "constant": false,
      "inputs": [
        {
          "name": "batchNo",
          "type": "address"
        }
      ],
      "name": "getFarmerData",
      "outputs": [
        {
          "name": "cropVariety",
          "type": "string"
        },
        {
          "name": "temperatureUsed",
          "type": "string"
        },
        {
          "name": "humidity",
          "type": "string"
        }
      ],
      "payable": true,
      "stateMutability": "payable",
      "type": "function"
    },
    {
      "constant": false,
      "inputs": [
        {
          "name": "batchNo",
          "type": "address"
        },
        {
          "name": "_quantity",
          "type": "uint256"
        },
        {
          "name": "_destinationAddress",
          "type": "string"
        },
        {
          "name": "_shipName",
          "type": "string"
        },
        {
          "name": "_shipNo",
          "type": "string"
        },
        {
          "name": "_estimateDateTime",
          "type": "uint256"
        },
        {
          "name": "_manufacturerId",
          "type": "uint256"
        }
      ],
      "name": "setManufacturerData",
      "outputs": [
        {
          "name": "",
          "type": "bool"
        }
      ],
      "payable": false,
      "stateMutability": "nonpayable",
      "type": "function"
    },
    {
      "constant": false,
      "inputs": [
        {
          "name": "batchNo",
          "type": "address"
        }
      ],
      "name": "getManufacturerData",
      "outputs": [
        {
          "name": "quantity",
          "type": "uint256"
        },
        {
          "name": "destinationAddress",
          "type": "string"
        },
        {
          "name": "shipName",
          "type": "string"
        },
        {
          "name": "shipNo",
          "type": "string"
        },
        {
          "name": "departureDateTime",
          "type": "uint256"
        },
        {
          "name": "estimateDateTime",
          "type": "uint256"
        },
        {
          "name": "manfacturerId",
          "type": "uint256"
        }
      ],
      "payable": true,
      "stateMutability": "payable",
      "type": "function"
    },
    {
      "constant": false,
      "inputs": [
        {
          "name": "batchNo",
          "type": "address"
        },
        {
          "name": "_quantity",
          "type": "uint256"
        },
        {
          "name": "_shipName",
          "type": "string"
        },
        {
          "name": "_shipNo",
          "type": "string"
        },
        {
          "name": "_warehouseName",
          "type": "string"
        },
        {
          "name": "_warehouseAddress",
          "type": "string"
        },
        {
          "name": "_distributorId",
          "type": "uint256"
        }
      ],
      "name": "setDistributorData",
      "outputs": [
        {
          "name": "",
          "type": "bool"
        }
      ],
      "payable": false,
      "stateMutability": "nonpayable",
      "type": "function"
    },
    {
      "constant": false,
      "inputs": [
        {
          "name": "batchNo",
          "type": "address"
        }
      ],
      "name": "getDistributorData",
      "outputs": [
        {
          "name": "quantity",
          "type": "uint256"
        },
        {
          "name": "shipName",
          "type": "string"
        },
        {
          "name": "shipNo",
          "type": "string"
        },
        {
          "name": "arrivalDateTime",
          "type": "uint256"
        },
        {
          "name": "warehouseName",
          "type": "string"
        },
        {
          "name": "warehouseAddress",
          "type": "string"
        },
        {
          "name": "distributorId",
          "type": "uint256"
        }
      ],
      "payable": true,
      "stateMutability": "payable",
      "type": "function"
    },
    {
      "constant": false,
      "inputs": [
        {
          "name": "batchNo",
          "type": "address"
        },
        {
          "name": "_quantity",
          "type": "uint256"
        },
        {
          "name": "_temperature",
          "type": "string"
        },
        {
          "name": "_internalBatchNo",
          "type": "string"
        },
        {
          "name": "_packageDateTime",
          "type": "uint256"
        },
        {
          "name": "_retailerName",
          "type": "string"
        },
        {
          "name": "_retailerAddress",
          "type": "string"
        }
      ],
      "name": "setRetailerData",
      "outputs": [
        {
          "name": "",
          "type": "bool"
        }
      ],
      "payable": false,
      "stateMutability": "nonpayable",
      "type": "function"
    },
    {
      "constant": false,
      "inputs": [
        {
          "name": "batchNo",
          "type": "address"
        }
      ],
      "name": "getRetailerData",
      "outputs": [
        {
          "name": "quantity",
          "type": "uint256"
        },
        {
          "name": "temperature",
          "type": "string"
        },
        {
          "name": "internalBatchNo",
          "type": "string"
        },
        {
          "name": "packageDateTime",
          "type": "uint256"
        },
        {
          "name": "retailerName",
          "type": "string"
        },
        {
          "name": "retailerAddress",
          "type": "string"
        }
      ],
      "payable": true,
      "stateMutability": "payable",
      "type": "function"
    }
  ],
  "bytecode": "0x608060405234801561001057600080fd5b50336000806101000a81548173ffffffffffffffffffffffffffffffffffffffff021916908373ffffffffffffffffffffffffffffffffffffffff1602179055506001600460003373ffffffffffffffffffffffffffffffffffffffff1673ffffffffffffffffffffffffffffffffffffffff16815260200190815260200160002060006101000a81548160ff021916908360ff1602179055507f8afeca650897be3183b7c0d24eba96a1b990f75c4bd74a0cfb2c0a71aec48e6133604051808273ffffffffffffffffffffffffffffffffffffffff1673ffffffffffffffffffffffffffffffffffffffff16815260200191505060405180910390a16151838061011c6000396000f3fe60806040526004361061011f5760003560e01c80636f77926b116100a0578063e8269a6911610064578063e8269a6914611617578063e8530dba146118f0578063f2997d7614611b3c578063f2fde38b14611da9578063fb7a20af14611dfa5761011f565b80636f77926b14610d60578063715018a614610f6c5780638da5cb5b14610f83578063982a917b14610fda578063cf374674146112b35761011f565b806335057b6b116100e757806335057b6b146105205780634b0b4c5f146106d15780634d6b5e001461086657806354899082146109235780636a7352d514610b515761011f565b8063161d5c1b146101245780631bcd250a1461033a57806327820851146103a35780632c388d5d146104605780633480898b146104c9575b600080fd5b6101666004803603602081101561013a57600080fd5b81019080803573ffffffffffffffffffffffffffffffffffffffff1690602001909291905050506120cb565b604051808881526020018060200180602001878152602001806020018060200186815260200185810385528b818151815260200191508051906020019080838360005b838110156101c45780820151818401526020810190506101a9565b50505050905090810190601f1680156101f15780820380516001836020036101000a031916815260200191505b5085810384528a818151815260200191508051906020019080838360005b8381101561022a57808201518184015260208101905061020f565b50505050905090810190601f1680156102575780820380516001836020036101000a031916815260200191505b50858103835288818151815260200191508051906020019080838360005b83811015610290578082015181840152602081019050610275565b50505050905090810190601f1680156102bd5780820380516001836020036101000a031916815260200191505b50858103825287818151815260200191508051906020019080838360005b838110156102f65780820151818401526020810190506102db565b50505050905090810190601f1680156103235780820380516001836020036101000a031916815260200191505b509b50505050505050505050505060405180910390f35b34801561034657600080fd5b506103896004803603602081101561035d57600080fd5b81019080803573ffffffffffffffffffffffffffffffffffffffff1690602001909291905050506124b7565b604051808215151515815260200191505060405180910390f35b6103e5600480360360208110156103b957600080fd5b81019080803573ffffffffffffffffffffffffffffffffffffffff1690602001909291905050506125d7565b6040518080602001828103825283818151815260200191508051906020019080838360005b8381101561042557808201518184015260208101905061040a565b50505050905090810190601f1680156104525780820380516001836020036101000a031916815260200191505b509250505060405180910390f35b34801561046c57600080fd5b506104af6004803603602081101561048357600080fd5b81019080803573ffffffffffffffffffffffffffffffffffffffff169060200190929190505050612755565b604051808215151515815260200191505060405180910390f35b3480156104d557600080fd5b506104de612875565b604051808273ffffffffffffffffffffffffffffffffffffffff1673ffffffffffffffffffffffffffffffffffffffff16815260200191505060405180910390f35b6105626004803603602081101561053657600080fd5b81019080803573ffffffffffffffffffffffffffffffffffffffff16906020019092919050505061289b565b6040518088815260200180602001806020018060200187815260200186815260200185815260200184810384528a818151815260200191508051906020019080838360005b838110156105c25780820151818401526020810190506105a7565b50505050905090810190601f1680156105ef5780820380516001836020036101000a031916815260200191505b50848103835289818151815260200191508051906020019080838360005b8381101561062857808201518184015260208101905061060d565b50505050905090810190601f1680156106555780820380516001836020036101000a031916815260200191505b50848103825288818151815260200191508051906020019080838360005b8381101561068e578082015181840152602081019050610673565b50505050905090810190601f1680156106bb5780820380516001836020036101000a031916815260200191505b509a505050505050505050505060405180910390f35b610713600480360360208110156106e757600080fd5b81019080803573ffffffffffffffffffffffffffffffffffffffff169060200190929190505050612bf7565b60405180806020018060200180602001848103845287818151815260200191508051906020019080838360005b8381101561075b578082015181840152602081019050610740565b50505050905090810190601f1680156107885780820380516001836020036101000a031916815260200191505b50848103835286818151815260200191508051906020019080838360005b838110156107c15780820151818401526020810190506107a6565b50505050905090810190601f1680156107ee5780820380516001836020036101000a031916815260200191505b50848103825285818151815260200191508051906020019080838360005b8381101561082757808201518184015260208101905061080c565b50505050905090810190601f1680156108545780820380516001836020036101000a031916815260200191505b50965050505050505060405180910390f35b6108a86004803603602081101561087c57600080fd5b81019080803573ffffffffffffffffffffffffffffffffffffffff169060200190929190505050612ef9565b6040518080602001828103825283818151815260200191508051906020019080838360005b838110156108e85780820151818401526020810190506108cd565b50505050905090810190601f1680156109155780820380516001836020036101000a031916815260200191505b509250505060405180910390f35b34801561092f57600080fd5b50610b376004803603608081101561094657600080fd5b81019080803573ffffffffffffffffffffffffffffffffffffffff1690602001909291908035906020019064010000000081111561098357600080fd5b82018360208201111561099557600080fd5b803590602001918460018302840111640100000000831117156109b757600080fd5b91908080601f016020809104026020016040519081016040528093929190818152602001838380828437600081840152601f19601f82011690508083019250505050505050919291929080359060200190640100000000811115610a1a57600080fd5b820183602082011115610a2c57600080fd5b80359060200191846001830284011164010000000083111715610a4e57600080fd5b91908080601f016020809104026020016040519081016040528093929190818152602001838380828437600081840152601f19601f82011690508083019250505050505050919291929080359060200190640100000000811115610ab157600080fd5b820183602082011115610ac357600080fd5b80359060200191846001830284011164010000000083111715610ae557600080fd5b91908080601f016020809104026020016040519081016040528093929190818152602001838380828437600081840152601f19601f820116905080830192505050505050509192919290505050613077565b604051808215151515815260200191505060405180910390f35b610b9360048036036020811015610b6757600080fd5b81019080803573ffffffffffffffffffffffffffffffffffffffff1690602001909291905050506132b5565b604051808781526020018060200180602001868152602001806020018060200185810385528a818151815260200191508051906020019080838360005b83811015610beb578082015181840152602081019050610bd0565b50505050905090810190601f168015610c185780820380516001836020036101000a031916815260200191505b50858103845289818151815260200191508051906020019080838360005b83811015610c51578082015181840152602081019050610c36565b50505050905090810190601f168015610c7e5780820380516001836020036101000a031916815260200191505b50858103835287818151815260200191508051906020019080838360005b83811015610cb7578082015181840152602081019050610c9c565b50505050905090810190601f168015610ce45780820380516001836020036101000a031916815260200191505b50858103825286818151815260200191508051906020019080838360005b83811015610d1d578082015181840152602081019050610d02565b50505050905090810190601f168015610d4a5780820380516001836020036101000a031916815260200191505b509a505050505050505050505060405180910390f35b610da260048036036020811015610d7657600080fd5b81019080803573ffffffffffffffffffffffffffffffffffffffff16906020019092919050505061368c565b60405180806020018060200180602001861515151581526020018060200185810385528a818151815260200191508051906020019080838360005b83811015610df8578082015181840152602081019050610ddd565b50505050905090810190601f168015610e255780820380516001836020036101000a031916815260200191505b50858103845289818151815260200191508051906020019080838360005b83811015610e5e578082015181840152602081019050610e43565b50505050905090810190601f168015610e8b5780820380516001836020036101000a031916815260200191505b50858103835288818151815260200191508051906020019080838360005b83811015610ec4578082015181840152602081019050610ea9565b50505050905090810190601f168015610ef15780820380516001836020036101000a031916815260200191505b50858103825286818151815260200191508051906020019080838360005b83811015610f2a578082015181840152602081019050610f0f565b50505050905090810190601f168015610f575780820380516001836020036101000a031916815260200191505b50995050505050505050505060405180910390f35b348015610f7857600080fd5b50610f81613a93565b005b348015610f8f57600080fd5b50610f98613b93565b604051808273ffffffffffffffffffffffffffffffffffffffff1673ffffffffffffffffffffffffffffffffffffffff16815260200191505060405180910390f35b348015610fe657600080fd5b50611299600480360360e0811015610ffd57600080fd5b81019080803573ffffffffffffffffffffffffffffffffffffffff169060200190929190803590602001909291908035906020019064010000000081111561104457600080fd5b82018360208201111561105657600080fd5b8035906020019184600183028401116401000000008311171561107857600080fd5b91908080601f016020809104026020016040519081016040528093929190818152602001838380828437600081840152601f19601f820116905080830192505050505050509192919290803590602001906401000000008111156110db57600080fd5b8201836020820111156110ed57600080fd5b8035906020019184600183028401116401000000008311171561110f57600080fd5b91908080601f016020809104026020016040519081016040528093929190818152602001838380828437600081840152601f19601f820116905080830192505050505050509192919290803590602001909291908035906020019064010000000081111561117c57600080fd5b82018360208201111561118e57600080fd5b803590602001918460018302840111640100000000831117156111b057600080fd5b91908080601f016020809104026020016040519081016040528093929190818152602001838380828437600081840152601f19601f8201169050808301925050505050505091929192908035906020019064010000000081111561121357600080fd5b82018360208201111561122557600080fd5b8035906020019184600183028401116401000000008311171561124757600080fd5b91908080601f016020809104026020016040519081016040528093929190818152602001838380828437600081840152601f19601f820116905080830192505050505050509192919290505050613bb8565b604051808215151515815260200191505060405180910390f35b3480156112bf57600080fd5b506115d5600480360360a08110156112d657600080fd5b81019080803590602001906401000000008111156112f357600080fd5b82018360208201111561130557600080fd5b8035906020019184600183028401116401000000008311171561132757600080fd5b91908080601f016020809104026020016040519081016040528093929190818152602001838380828437600081840152601f19601f8201169050808301925050505050505091929192908035906020019064010000000081111561138a57600080fd5b82018360208201111561139c57600080fd5b803590602001918460018302840111640100000000831117156113be57600080fd5b91908080601f016020809104026020016040519081016040528093929190818152602001838380828437600081840152601f19601f8201169050808301925050505050505091929192908035906020019064010000000081111561142157600080fd5b82018360208201111561143357600080fd5b8035906020019184600183028401116401000000008311171561145557600080fd5b91908080601f016020809104026020016040519081016040528093929190818152602001838380828437600081840152601f19601f820116905080830192505050505050509192919290803590602001906401000000008111156114b857600080fd5b8201836020820111156114ca57600080fd5b803590602001918460018302840111640100000000831117156114ec57600080fd5b91908080601f016020809104026020016040519081016040528093929190818152602001838380828437600081840152601f19601f8201169050808301925050505050505091929192908035906020019064010000000081111561154f57600080fd5b82018360208201111561156157600080fd5b8035906020019184600183028401116401000000008311171561158357600080fd5b91908080601f016020809104026020016040519081016040528093929190818152602001838380828437600081840152601f19601f820116905080830192505050505050509192919290505050613e63565b604051808273ffffffffffffffffffffffffffffffffffffffff1673ffffffffffffffffffffffffffffffffffffffff16815260200191505060405180910390f35b34801561162357600080fd5b506118d6600480360360e081101561163a57600080fd5b81019080803573ffffffffffffffffffffffffffffffffffffffff169060200190929190803590602001909291908035906020019064010000000081111561168157600080fd5b82018360208201111561169357600080fd5b803590602001918460018302840111640100000000831117156116b557600080fd5b91908080601f016020809104026020016040519081016040528093929190818152602001838380828437600081840152601f19601f8201169050808301925050505050505091929192908035906020019064010000000081111561171857600080fd5b82018360208201111561172a57600080fd5b8035906020019184600183028401116401000000008311171561174c57600080fd5b91908080601f016020809104026020016040519081016040528093929190818152602001838380828437600081840152601f19601f820116905080830192505050505050509192919290803590602001906401000000008111156117af57600080fd5b8201836020820111156117c157600080fd5b803590602001918460018302840111640100000000831117156117e357600080fd5b91908080601f016020809104026020016040519081016040528093929190818152602001838380828437600081840152601f19601f8201169050808301925050505050505091929192908035906020019064010000000081111561184657600080fd5b82018360208201111561185857600080fd5b8035906020019184600183028401116401000000008311171561187a57600080fd5b91908080601f016020809104026020016040519081016040528093929190818152602001838380828437600081840152601f19601f82011690508083019250505050505050919291929080359060200190929190505050614191565b604051808215151515815260200191505060405180910390f35b3480156118fc57600080fd5b50611b22600480360360e081101561191357600080fd5b81019080803573ffffffffffffffffffffffffffffffffffffffff169060200190929190803590602001909291908035906020019064010000000081111561195a57600080fd5b82018360208201111561196c57600080fd5b8035906020019184600183028401116401000000008311171561198e57600080fd5b91908080601f016020809104026020016040519081016040528093929190818152602001838380828437600081840152601f19601f820116905080830192505050505050509192919290803590602001906401000000008111156119f157600080fd5b820183602082011115611a0357600080fd5b80359060200191846001830284011164010000000083111715611a2557600080fd5b91908080601f016020809104026020016040519081016040528093929190818152602001838380828437600081840152601f19601f82011690508083019250505050505050919291929080359060200190640100000000811115611a8857600080fd5b820183602082011115611a9a57600080fd5b80359060200191846001830284011164010000000083111715611abc57600080fd5b91908080601f016020809104026020016040519081016040528093929190818152602001838380828437600081840152601f19601f8201169050808301925050505050505091929192908035906020019092919080359060200190929190505050614450565b604051808215151515815260200191505060405180910390f35b611b7e60048036036020811015611b5257600080fd5b81019080803573ffffffffffffffffffffffffffffffffffffffff1690602001909291905050506146eb565b60405180806020018060200180602001806020018060200186810386528b818151815260200191508051906020019080838360005b83811015611bce578082015181840152602081019050611bb3565b50505050905090810190601f168015611bfb5780820380516001836020036101000a031916815260200191505b5086810385528a818151815260200191508051906020019080838360005b83811015611c34578082015181840152602081019050611c19565b50505050905090810190601f168015611c615780820380516001836020036101000a031916815260200191505b50868103845289818151815260200191508051906020019080838360005b83811015611c9a578082015181840152602081019050611c7f565b50505050905090810190601f168015611cc75780820380516001836020036101000a031916815260200191505b50868103835288818151815260200191508051906020019080838360005b83811015611d00578082015181840152602081019050611ce5565b50505050905090810190601f168015611d2d5780820380516001836020036101000a031916815260200191505b50868103825287818151815260200191508051906020019080838360005b83811015611d66578082015181840152602081019050611d4b565b50505050905090810190601f168015611d935780820380516001836020036101000a031916815260200191505b509a505050505050505050505060405180910390f35b348015611db557600080fd5b50611df860048036036020811015611dcc57600080fd5b81019080803573ffffffffffffffffffffffffffffffffffffffff169060200190929190505050614b4a565b005b348015611e0657600080fd5b506120b1600480360360c0811015611e1d57600080fd5b81019080803573ffffffffffffffffffffffffffffffffffffffff16906020019092919080359060200190640100000000811115611e5a57600080fd5b820183602082011115611e6c57600080fd5b80359060200191846001830284011164010000000083111715611e8e57600080fd5b91908080601f016020809104026020016040519081016040528093929190818152602001838380828437600081840152601f19601f82011690508083019250505050505050919291929080359060200190640100000000811115611ef157600080fd5b820183602082011115611f0357600080fd5b80359060200191846001830284011164010000000083111715611f2557600080fd5b91908080601f016020809104026020016040519081016040528093929190818152602001838380828437600081840152601f19601f82011690508083019250505050505050919291929080359060200190640100000000811115611f8857600080fd5b820183602082011115611f9a57600080fd5b80359060200191846001830284011164010000000083111715611fbc57600080fd5b91908080601f016020809104026020016040519081016040528093929190818152602001838380828437600081840152601f19601f8201169050808301925050505050505091929192908035151590602001909291908035906020019064010000000081111561202b57600080fd5b82018360208201111561203d57600080fd5b8035906020019184600183028401116401000000008311171561205f57600080fd5b91908080601f016020809104026020016040519081016040528093929190818152602001838380828437600081840152601f19601f820116905080830192505050505050509192919290505050614c9b565b604051808215151515815260200191505060405180910390f35b60006060806000606080600033600160006101000a81548173ffffffffffffffffffffffffffffffffffffffff021916908373ffffffffffffffffffffffffffffffffffffffff1602179055506001600460003373ffffffffffffffffffffffffffffffffffffffff1673ffffffffffffffffffffffffffffffffffffffff16815260200190815260200160002060009054906101000a900460ff1660ff161461217457600080fd5b61217c614ef0565b600860008a73ffffffffffffffffffffffffffffffffffffffff1673ffffffffffffffffffffffffffffffffffffffff1681526020019081526020016000206040518060e0016040529081600082015481526020016001820154815260200160028201548152602001600382018054600181600116156101000203166002900480601f01602080910402602001604051908101604052809291908181526020018280546001816001161561010002031660029004801561227d5780601f106122525761010080835404028352916020019161227d565b820191906000526020600020905b81548152906001019060200180831161226057829003601f168201915b50505050508152602001600482018054600181600116156101000203166002900480601f01602080910402602001604051908101604052809291908181526020018280546001816001161561010002031660029004801561231f5780601f106122f45761010080835404028352916020019161231f565b820191906000526020600020905b81548152906001019060200180831161230257829003601f168201915b50505050508152602001600582018054600181600116156101000203166002900480601f0160208091040260200160405190810160405280929190818152602001828054600181600116156101000203166002900480156123c15780601f10612396576101008083540402835291602001916123c1565b820191906000526020600020905b8154815290600101906020018083116123a457829003601f168201915b50505050508152602001600682018054600181600116156101000203166002900480601f0160208091040260200160405190810160405280929190818152602001828054600181600116156101000203166002900480156124635780601f1061243857610100808354040283529160200191612463565b820191906000526020600020905b81548152906001019060200180831161244657829003601f168201915b505050505081525050905080600001518160600151826080015183602001518460a001518560c001518660400151859550849450829250819150975097509750975097509750975050919395979092949650565b60008060009054906101000a900473ffffffffffffffffffffffffffffffffffffffff1673ffffffffffffffffffffffffffffffffffffffff163373ffffffffffffffffffffffffffffffffffffffff161461251257600080fd5b6000600460008473ffffffffffffffffffffffffffffffffffffffff1673ffffffffffffffffffffffffffffffffffffffff16815260200190815260200160002060006101000a81548160ff021916908360ff1602179055507f9e8ca6ff03906e81e8a6a03d4f96b7edb0b97f0ed9d07ef1b699fff63438549682604051808273ffffffffffffffffffffffffffffffffffffffff1673ffffffffffffffffffffffffffffffffffffffff16815260200191505060405180910390a160019050919050565b606033600160006101000a81548173ffffffffffffffffffffffffffffffffffffffff021916908373ffffffffffffffffffffffffffffffffffffffff1602179055506001600460003373ffffffffffffffffffffffffffffffffffffffff1673ffffffffffffffffffffffffffffffffffffffff16815260200190815260200160002060009054906101000a900460ff1660ff161461267657600080fd5b600360008373ffffffffffffffffffffffffffffffffffffffff1673ffffffffffffffffffffffffffffffffffffffff1681526020019081526020016000208054600181600116156101000203166002900480601f0160208091040260200160405190810160405280929190818152602001828054600181600116156101000203166002900480156127495780601f1061271e57610100808354040283529160200191612749565b820191906000526020600020905b81548152906001019060200180831161272c57829003601f168201915b50505050509050919050565b60008060009054906101000a900473ffffffffffffffffffffffffffffffffffffffff1673ffffffffffffffffffffffffffffffffffffffff163373ffffffffffffffffffffffffffffffffffffffff16146127b057600080fd5b6001600460008473ffffffffffffffffffffffffffffffffffffffff1673ffffffffffffffffffffffffffffffffffffffff16815260200190815260200160002060006101000a81548160ff021916908360ff1602179055507f8afeca650897be3183b7c0d24eba96a1b990f75c4bd74a0cfb2c0a71aec48e6182604051808273ffffffffffffffffffffffffffffffffffffffff1673ffffffffffffffffffffffffffffffffffffffff16815260200191505060405180910390a160019050919050565b600160009054906101000a900473ffffffffffffffffffffffffffffffffffffffff1681565b60006060806060600080600033600160006101000a81548173ffffffffffffffffffffffffffffffffffffffff021916908373ffffffffffffffffffffffffffffffffffffffff1602179055506001600460003373ffffffffffffffffffffffffffffffffffffffff1673ffffffffffffffffffffffffffffffffffffffff16815260200190815260200160002060009054906101000a900460ff1660ff161461294457600080fd5b61294c614f2d565b600760008a73ffffffffffffffffffffffffffffffffffffffff1673ffffffffffffffffffffffffffffffffffffffff16815260200190815260200160002060405180610100016040529081600082018054600181600116156101000203166002900480601f016020809104026020016040519081016040528092919081815260200182805460018160011615610100020316600290048015612a305780601f10612a0557610100808354040283529160200191612a30565b820191906000526020600020905b815481529060010190602001808311612a1357829003601f168201915b50505050508152602001600182018054600181600116156101000203166002900480601f016020809104026020016040519081016040528092919081815260200182805460018160011615610100020316600290048015612ad25780601f10612aa757610100808354040283529160200191612ad2565b820191906000526020600020905b815481529060010190602001808311612ab557829003601f168201915b50505050508152602001600282018054600181600116156101000203166002900480601f016020809104026020016040519081016040528092919081815260200182805460018160011615610100020316600290048015612b745780601f10612b4957610100808354040283529160200191612b74565b820191906000526020600020905b815481529060010190602001808311612b5757829003601f168201915b50505050508152602001600382015481526020016004820154815260200160058201548152602001600682015481526020016007820154815250509050806060015181600001518260200151836040015184608001518560a001518660e00151859550849450839350975097509750975097509750975050919395979092949650565b606080606033600160006101000a81548173ffffffffffffffffffffffffffffffffffffffff021916908373ffffffffffffffffffffffffffffffffffffffff1602179055506001600460003373ffffffffffffffffffffffffffffffffffffffff1673ffffffffffffffffffffffffffffffffffffffff16815260200190815260200160002060009054906101000a900460ff1660ff1614612c9957600080fd5b612ca1614f72565b600660008673ffffffffffffffffffffffffffffffffffffffff1673ffffffffffffffffffffffffffffffffffffffff168152602001908152602001600020604051806060016040529081600082018054600181600116156101000203166002900480601f016020809104026020016040519081016040528092919081815260200182805460018160011615610100020316600290048015612d845780601f10612d5957610100808354040283529160200191612d84565b820191906000526020600020905b815481529060010190602001808311612d6757829003601f168201915b50505050508152602001600182018054600181600116156101000203166002900480601f016020809104026020016040519081016040528092919081815260200182805460018160011615610100020316600290048015612e265780601f10612dfb57610100808354040283529160200191612e26565b820191906000526020600020905b815481529060010190602001808311612e0957829003601f168201915b50505050508152602001600282018054600181600116156101000203166002900480601f016020809104026020016040519081016040528092919081815260200182805460018160011615610100020316600290048015612ec85780601f10612e9d57610100808354040283529160200191612ec8565b820191906000526020600020905b815481529060010190602001808311612eab57829003601f168201915b5050505050815250509050806000015181602001518260400151829250819150809050935093509350509193909250565b606033600160006101000a81548173ffffffffffffffffffffffffffffffffffffffff021916908373ffffffffffffffffffffffffffffffffffffffff1602179055506001600460003373ffffffffffffffffffffffffffffffffffffffff1673ffffffffffffffffffffffffffffffffffffffff16815260200190815260200160002060009054906101000a900460ff1660ff1614612f9857600080fd5b600a60008373ffffffffffffffffffffffffffffffffffffffff1673ffffffffffffffffffffffffffffffffffffffff1681526020019081526020016000208054600181600116156101000203166002900480601f01602080910402602001604051908101604052809291908181526020018280546001816001161561010002031660029004801561306b5780601f106130405761010080835404028352916020019161306b565b820191906000526020600020905b81548152906001019060200180831161304e57829003601f168201915b50505050509050919050565b600033600160006101000a81548173ffffffffffffffffffffffffffffffffffffffff021916908373ffffffffffffffffffffffffffffffffffffffff1602179055506001600460003373ffffffffffffffffffffffffffffffffffffffff1673ffffffffffffffffffffffffffffffffffffffff16815260200190815260200160002060009054906101000a900460ff1660ff161461311657600080fd5b836014600001908051906020019061312f929190614f93565b508260146001019080519060200190613149929190614f93565b508160146002019080519060200190613163929190614f93565b506014600660008773ffffffffffffffffffffffffffffffffffffffff1673ffffffffffffffffffffffffffffffffffffffff168152602001908152602001600020600082018160000190805460018160011615610100020316600290046131cc929190615013565b50600182018160010190805460018160011615610100020316600290046131f4929190615013565b506002820181600201908054600181600116156101000203166002900461321c929190615013565b509050506040518060400160405280600c81526020017f4d414e5546414354555245520000000000000000000000000000000000000000815250600a60008773ffffffffffffffffffffffffffffffffffffffff1673ffffffffffffffffffffffffffffffffffffffff16815260200190815260200160002090805190602001906132a8929190614f93565b5060019050949350505050565b6000606080600060608033600160006101000a81548173ffffffffffffffffffffffffffffffffffffffff021916908373ffffffffffffffffffffffffffffffffffffffff1602179055506001600460003373ffffffffffffffffffffffffffffffffffffffff1673ffffffffffffffffffffffffffffffffffffffff16815260200190815260200160002060009054906101000a900460ff1660ff161461335c57600080fd5b61336461509a565b600960008973ffffffffffffffffffffffffffffffffffffffff1673ffffffffffffffffffffffffffffffffffffffff1681526020019081526020016000206040518060c00160405290816000820154815260200160018201548152602001600282018054600181600116156101000203166002900480601f01602080910402602001604051908101604052809291908181526020018280546001816001161561010002031660029004801561345b5780601f106134305761010080835404028352916020019161345b565b820191906000526020600020905b81548152906001019060200180831161343e57829003601f168201915b50505050508152602001600382018054600181600116156101000203166002900480601f0160208091040260200160405190810160405280929190818152602001828054600181600116156101000203166002900480156134fd5780601f106134d2576101008083540402835291602001916134fd565b820191906000526020600020905b8154815290600101906020018083116134e057829003601f168201915b50505050508152602001600482018054600181600116156101000203166002900480601f01602080910402602001604051908101604052809291908181526020018280546001816001161561010002031660029004801561359f5780601f106135745761010080835404028352916020019161359f565b820191906000526020600020905b81548152906001019060200180831161358257829003601f168201915b50505050508152602001600582018054600181600116156101000203166002900480601f0160208091040260200160405190810160405280929190818152602001828054600181600116156101000203166002900480156136415780601f1061361657610100808354040283529160200191613641565b820191906000526020600020905b81548152906001019060200180831161362457829003601f168201915b5050505050815250509050806000015181604001518260600151836020015184608001518560a001518494508393508191508090509650965096509650965096505091939550919395565b60608060606000606033600160006101000a81548173ffffffffffffffffffffffffffffffffffffffff021916908373ffffffffffffffffffffffffffffffffffffffff1602179055506001600460003373ffffffffffffffffffffffffffffffffffffffff1673ffffffffffffffffffffffffffffffffffffffff16815260200190815260200160002060009054906101000a900460ff1660ff161461373257600080fd5b61373a6150d0565b600260008873ffffffffffffffffffffffffffffffffffffffff1673ffffffffffffffffffffffffffffffffffffffff168152602001908152602001600020604051806080016040529081600082018054600181600116156101000203166002900480601f01602080910402602001604051908101604052809291908181526020018280546001816001161561010002031660029004801561381d5780601f106137f25761010080835404028352916020019161381d565b820191906000526020600020905b81548152906001019060200180831161380057829003601f168201915b50505050508152602001600182018054600181600116156101000203166002900480601f0160208091040260200160405190810160405280929190818152602001828054600181600116156101000203166002900480156138bf5780601f10613894576101008083540402835291602001916138bf565b820191906000526020600020905b8154815290600101906020018083116138a257829003601f168201915b505050505081526020016002820160009054906101000a900460ff16151515158152602001600382018054600181600116156101000203166002900480601f01602080910402602001604051908101604052809291908181526020018280546001816001161561010002031660029004801561397c5780601f106139515761010080835404028352916020019161397c565b820191906000526020600020905b81548152906001019060200180831161395f57829003601f168201915b505050505081525050905080600001518160200151600360008a73ffffffffffffffffffffffffffffffffffffffff1673ffffffffffffffffffffffffffffffffffffffff16815260200190815260200160002083604001518460600151849450839350828054600181600116156101000203166002900480601f016020809104026020016040519081016040528092919081815260200182805460018160011615610100020316600290048015613a755780601f10613a4a57610100808354040283529160200191613a75565b820191906000526020600020905b815481529060010190602001808311613a5857829003601f168201915b50505050509250809050955095509550955095505091939590929450565b6000809054906101000a900473ffffffffffffffffffffffffffffffffffffffff1673ffffffffffffffffffffffffffffffffffffffff163373ffffffffffffffffffffffffffffffffffffffff1614613aec57600080fd5b6000809054906101000a900473ffffffffffffffffffffffffffffffffffffffff1673ffffffffffffffffffffffffffffffffffffffff167ff8df31144d9c2f0f6b59d69b8b98abd5459d07f2742c4df920b25aae33c6482060405160405180910390a260008060006101000a81548173ffffffffffffffffffffffffffffffffffffffff021916908373ffffffffffffffffffffffffffffffffffffffff160217905550565b6000809054906101000a900473ffffffffffffffffffffffffffffffffffffffff1681565b600033600160006101000a81548173ffffffffffffffffffffffffffffffffffffffff021916908373ffffffffffffffffffffffffffffffffffffffff1602179055506001600460003373ffffffffffffffffffffffffffffffffffffffff1673ffffffffffffffffffffffffffffffffffffffff16815260200190815260200160002060009054906101000a900460ff1660ff1614613c5757600080fd5b866026600001819055508560266002019080519060200190613c7a929190614f93565b508460266003019080519060200190613c94929190614f93565b50836026600101819055508260266004019080519060200190613cb8929190614f93565b508160266005019080519060200190613cd2929190614f93565b506026600960008a73ffffffffffffffffffffffffffffffffffffffff1673ffffffffffffffffffffffffffffffffffffffff168152602001908152602001600020600082015481600001556001820154816001015560028201816002019080546001816001161561010002031660029004613d4f929190615013565b5060038201816003019080546001816001161561010002031660029004613d77929190615013565b5060048201816004019080546001816001161561010002031660029004613d9f929190615013565b5060058201816005019080546001816001161561010002031660029004613dc7929190615013565b509050506040518060400160405280600481526020017f444f4e4500000000000000000000000000000000000000000000000000000000815250600a60008a73ffffffffffffffffffffffffffffffffffffffff1673ffffffffffffffffffffffffffffffffffffffff1681526020019081526020016000209080519060200190613e53929190614f93565b5060019050979650505050505050565b600033600160006101000a81548173ffffffffffffffffffffffffffffffffffffffff021916908373ffffffffffffffffffffffffffffffffffffffff1602179055506001600460003373ffffffffffffffffffffffffffffffffffffffff1673ffffffffffffffffffffffffffffffffffffffff16815260200190815260200160002060009054906101000a900460ff1660ff1614613f0257600080fd5b60003342604051602001808373ffffffffffffffffffffffffffffffffffffffff1673ffffffffffffffffffffffffffffffffffffffff1660601b8152601401828152602001925050506040516020818303038152906040528051906020012060001c9050600081905087600f6000019080519060200190613f85929190614f93565b5086600f6001019080519060200190613f9f929190614f93565b5085600f6002019080519060200190613fb9929190614f93565b5084600f6003019080519060200190613fd3929190614f93565b5083600f6004019080519060200190613fed929190614f93565b50600f600560008373ffffffffffffffffffffffffffffffffffffffff1673ffffffffffffffffffffffffffffffffffffffff16815260200190815260200160002060008201816000019080546001816001161561010002031660029004614056929190615013565b506001820181600101908054600181600116156101000203166002900461407e929190615013565b50600282018160020190805460018160011615610100020316600290046140a6929190615013565b50600382018160030190805460018160011615610100020316600290046140ce929190615013565b50600482018160040190805460018160011615610100020316600290046140f6929190615013565b509050506040518060400160405280600681526020017f4641524d45520000000000000000000000000000000000000000000000000000815250600a60008373ffffffffffffffffffffffffffffffffffffffff1673ffffffffffffffffffffffffffffffffffffffff1681526020019081526020016000209080519060200190614182929190614f93565b50809250505095945050505050565b600033600160006101000a81548173ffffffffffffffffffffffffffffffffffffffff021916908373ffffffffffffffffffffffffffffffffffffffff1602179055506001600460003373ffffffffffffffffffffffffffffffffffffffff1673ffffffffffffffffffffffffffffffffffffffff16815260200190815260200160002060009054906101000a900460ff1660ff161461423057600080fd5b86601f6000018190555085601f6003019080519060200190614253929190614f93565b5084601f600401908051906020019061426d929190614f93565b5042601f6001018190555083601f6005019080519060200190614291929190614f93565b5082601f60060190805190602001906142ab929190614f93565b5081601f60020181905550601f600860008a73ffffffffffffffffffffffffffffffffffffffff1673ffffffffffffffffffffffffffffffffffffffff1681526020019081526020016000206000820154816000015560018201548160010155600282015481600201556003820181600301908054600181600116156101000203166002900461433c929190615013565b5060048201816004019080546001816001161561010002031660029004614364929190615013565b506005820181600501908054600181600116156101000203166002900461438c929190615013565b50600682018160060190805460018160011615610100020316600290046143b4929190615013565b509050506040518060400160405280600881526020017f52455441494c4552000000000000000000000000000000000000000000000000815250600a60008a73ffffffffffffffffffffffffffffffffffffffff1673ffffffffffffffffffffffffffffffffffffffff1681526020019081526020016000209080519060200190614440929190614f93565b5060019050979650505050505050565b600033600160006101000a81548173ffffffffffffffffffffffffffffffffffffffff021916908373ffffffffffffffffffffffffffffffffffffffff1602179055506001600460003373ffffffffffffffffffffffffffffffffffffffff1673ffffffffffffffffffffffffffffffffffffffff16815260200190815260200160002060009054906101000a900460ff1660ff16146144ef57600080fd5b866017600301819055508560176000019080519060200190614512929190614f93565b50846017600101908051906020019061452c929190614f93565b508360176002019080519060200190614546929190614f93565b504260176004018190555082601760050181905550816017600701819055506017600760008a73ffffffffffffffffffffffffffffffffffffffff1673ffffffffffffffffffffffffffffffffffffffff168152602001908152602001600020600082018160000190805460018160011615610100020316600290046145cd929190615013565b50600182018160010190805460018160011615610100020316600290046145f5929190615013565b506002820181600201908054600181600116156101000203166002900461461d929190615013565b5060038201548160030155600482015481600401556005820154816005015560068201548160060155600782015481600701559050506040518060400160405280600b81526020017f4449535452494255544f52000000000000000000000000000000000000000000815250600a60008a73ffffffffffffffffffffffffffffffffffffffff1673ffffffffffffffffffffffffffffffffffffffff16815260200190815260200160002090805190602001906146db929190614f93565b5060019050979650505050505050565b606080606080606033600160006101000a81548173ffffffffffffffffffffffffffffffffffffffff021916908373ffffffffffffffffffffffffffffffffffffffff1602179055506001600460003373ffffffffffffffffffffffffffffffffffffffff1673ffffffffffffffffffffffffffffffffffffffff16815260200190815260200160002060009054906101000a900460ff1660ff161461479057600080fd5b6147986150fa565b600560008873ffffffffffffffffffffffffffffffffffffffff1673ffffffffffffffffffffffffffffffffffffffff1681526020019081526020016000206040518060a0016040529081600082018054600181600116156101000203166002900480601f01602080910402602001604051908101604052809291908181526020018280546001816001161561010002031660029004801561487b5780601f106148505761010080835404028352916020019161487b565b820191906000526020600020905b81548152906001019060200180831161485e57829003601f168201915b50505050508152602001600182018054600181600116156101000203166002900480601f01602080910402602001604051908101604052809291908181526020018280546001816001161561010002031660029004801561491d5780601f106148f25761010080835404028352916020019161491d565b820191906000526020600020905b81548152906001019060200180831161490057829003601f168201915b50505050508152602001600282018054600181600116156101000203166002900480601f0160208091040260200160405190810160405280929190818152602001828054600181600116156101000203166002900480156149bf5780601f10614994576101008083540402835291602001916149bf565b820191906000526020600020905b8154815290600101906020018083116149a257829003601f168201915b50505050508152602001600382018054600181600116156101000203166002900480601f016020809104026020016040519081016040528092919081815260200182805460018160011615610100020316600290048015614a615780601f10614a3657610100808354040283529160200191614a61565b820191906000526020600020905b815481529060010190602001808311614a4457829003601f168201915b50505050508152602001600482018054600181600116156101000203166002900480601f016020809104026020016040519081016040528092919081815260200182805460018160011615610100020316600290048015614b035780601f10614ad857610100808354040283529160200191614b03565b820191906000526020600020905b815481529060010190602001808311614ae657829003601f168201915b505050505081525050905080600001518160200151826040015183606001518460800151849450839350829250819150809050955095509550955095505091939590929450565b6000809054906101000a900473ffffffffffffffffffffffffffffffffffffffff1673ffffffffffffffffffffffffffffffffffffffff163373ffffffffffffffffffffffffffffffffffffffff1614614ba357600080fd5b600073ffffffffffffffffffffffffffffffffffffffff168173ffffffffffffffffffffffffffffffffffffffff161415614bdd57600080fd5b8073ffffffffffffffffffffffffffffffffffffffff166000809054906101000a900473ffffffffffffffffffffffffffffffffffffffff1673ffffffffffffffffffffffffffffffffffffffff167f8be0079c531659141344cd1fd0a4f28419497f9722a3daafe3b4186f6b6457e060405160405180910390a3806000806101000a81548173ffffffffffffffffffffffffffffffffffffffff021916908373ffffffffffffffffffffffffffffffffffffffff16021790555050565b600033600160006101000a81548173ffffffffffffffffffffffffffffffffffffffff021916908373ffffffffffffffffffffffffffffffffffffffff1602179055506001600460003373ffffffffffffffffffffffffffffffffffffffff1673ffffffffffffffffffffffffffffffffffffffff16815260200190815260200160002060009054906101000a900460ff1660ff1614614d3a57600080fd5b85600b6000019080519060200190614d53929190614f93565b5084600b6001019080519060200190614d6d929190614f93565b5082600b60020160006101000a81548160ff02191690831515021790555081600b6003019080519060200190614da4929190614f93565b50600b600260008973ffffffffffffffffffffffffffffffffffffffff1673ffffffffffffffffffffffffffffffffffffffff16815260200190815260200160002060008201816000019080546001816001161561010002031660029004614e0d929190615013565b5060018201816001019080546001816001161561010002031660029004614e35929190615013565b506002820160009054906101000a900460ff168160020160006101000a81548160ff02191690831515021790555060038201816003019080546001816001161561010002031660029004614e8a929190615013565b5090505083600360008973ffffffffffffffffffffffffffffffffffffffff1673ffffffffffffffffffffffffffffffffffffffff1681526020019081526020016000209080519060200190614ee1929190614f93565b50600190509695505050505050565b6040518060e00160405280600081526020016000815260200160008152602001606081526020016060815260200160608152602001606081525090565b60405180610100016040528060608152602001606081526020016060815260200160008152602001600081526020016000815260200160008152602001600081525090565b60405180606001604052806060815260200160608152602001606081525090565b828054600181600116156101000203166002900490600052602060002090601f016020900481019282601f10614fd457805160ff1916838001178555615002565b82800160010185558215615002579182015b82811115615001578251825591602001919060010190614fe6565b5b50905061500f9190615129565b5090565b828054600181600116156101000203166002900490600052602060002090601f016020900481019282601f1061504c5780548555615089565b8280016001018555821561508957600052602060002091601f016020900482015b8281111561508857825482559160010191906001019061506d565b5b5090506150969190615129565b5090565b6040518060c001604052806000815260200160008152602001606081526020016060815260200160608152602001606081525090565b60405180608001604052806060815260200160608152602001600015158152602001606081525090565b6040518060a0016040528060608152602001606081526020016060815260200160608152602001606081525090565b61514b91905b8082111561514757600081600090555060010161512f565b5090565b9056fea265627a7a723058209711b6b599ecee50731b1f675a8ca62278347a6278ce300a4141b8f833971d7064736f6c634300050a0032",
  "source": "pragma solidity ^0.5.10;\r\n\r\nimport \"./SupplyChainStorageOwnable.sol\";\r\n\r\ncontract SupplyChainStorage is SupplyChainStorageOwnable {\r\n    \r\n    address public lastAccess;\r\n    constructor() public {\r\n        authorizedCaller[msg.sender] = 1;\r\n        emit AuthorizedCaller(msg.sender);\r\n    }\r\n    \r\n    /* Events */\r\n    event AuthorizedCaller(address caller);\r\n    event DeAuthorizedCaller(address caller);\r\n    \r\n    /* Modifiers */\r\n    \r\n    modifier onlyAuthCaller(){\r\n        lastAccess = msg.sender;\r\n        require(authorizedCaller[msg.sender] == 1);\r\n        _;\r\n    }\r\n    \r\n    /* User Related */\r\n    struct user {\r\n        string name;\r\n        string contactNo;\r\n        bool isActive;\r\n        string profileHash;\r\n    } \r\n    \r\n    mapping(address => user) userDetails;\r\n    mapping(address => string) userRole;\r\n    \r\n    /* Caller Mapping */\r\n    mapping(address => uint8) authorizedCaller;\r\n    \r\n    /* authorize caller */\r\n    function authorizeCaller(address _caller) public onlyOwner returns(bool) \r\n    {\r\n        authorizedCaller[_caller] = 1;\r\n        emit AuthorizedCaller(_caller);\r\n        return true;\r\n    }\r\n    \r\n    /* deauthorize caller */\r\n    function deAuthorizeCaller(address _caller) public onlyOwner returns(bool) \r\n    {\r\n        authorizedCaller[_caller] = 0;\r\n        emit DeAuthorizedCaller(_caller);\r\n        return true;\r\n    }\r\n    \r\n    /*User Roles\r\n        SUPER_ADMIN,\r\n        FARMER,\r\n        MANUFACTURER,\r\n        DISTRIBUTOR,\r\n        RETAILER\r\n    */\r\n    \r\n    /* Process Related */\r\n     struct basicDetails {\r\n        string registrationNo;\r\n        string farmerName;\r\n        string farmAddress;\r\n        string manufacturerName;\r\n        string distributorName;\r\n        \r\n    }\r\n    \r\n    struct farmer {\r\n        string cropVariety;\r\n        string temperatureUsed;\r\n        string humidity;\r\n    }    \r\n    \r\n    struct manufacturer {\r\n        string destinationAddress;\r\n        string shipName;\r\n        string shipNo;\r\n        uint256 quantity;\r\n        uint256 departureDateTime;\r\n        uint256 estimateDateTime;\r\n        uint256 plantNo;\r\n        uint256 manufacturerId;\r\n    }\r\n    \r\n    struct distributor {\r\n        uint256 quantity;\r\n        uint256 arrivalDateTime;\r\n        uint256 distributorId;\r\n        string shipName;\r\n        string shipNo;\r\n        string warehouseName;\r\n        string warehouseAddress;\r\n    }\r\n    \r\n    struct retailer {\r\n        uint256 quantity;\r\n        uint256 packageDateTime;\r\n        string temperature;\r\n        string internalBatchNo;\r\n        string retailerName;\r\n        string retailerAddress;\r\n    }\r\n    \r\n    mapping (address => basicDetails) batchBasicDetails;\r\n    mapping (address => farmer) batchFarmer;\r\n    mapping (address => manufacturer) batchManufacturer;\r\n    mapping (address => distributor) batchDistributor;\r\n    mapping (address => retailer) batchRetailer;\r\n    mapping (address => string) nextAction;\r\n    \r\n    /*Initialize struct pointer*/\r\n    user userDetail;\r\n    basicDetails basicDetailsData;\r\n    farmer farmerData;\r\n    manufacturer manufacturerData;\r\n    distributor distributorData;\r\n    retailer retailerData; \r\n    \r\n    \r\n    \r\n    /* Get User Role */\r\n    function getUserRole(address _userAddress) public onlyAuthCaller payable returns(string memory)\r\n    {\r\n        return userRole[_userAddress];\r\n    }\r\n    \r\n    /* Get Next Action  */    \r\n    function getNextAction(address _batchNo) public onlyAuthCaller payable returns(string memory)\r\n    {\r\n        return nextAction[_batchNo];\r\n    }\r\n        \r\n    /*set user details*/\r\n    function setUser(address _userAddress,\r\n                     string memory _name, \r\n                     string memory _contactNo, \r\n                     string memory _role, \r\n                     bool _isActive,\r\n                     string memory _profileHash) public onlyAuthCaller returns(bool){\r\n        \r\n        /*store data into struct*/\r\n        userDetail.name = _name;\r\n        userDetail.contactNo = _contactNo;\r\n        userDetail.isActive = _isActive;\r\n        userDetail.profileHash = _profileHash;\r\n        \r\n        /*store data into mapping*/\r\n        userDetails[_userAddress] = userDetail;\r\n        userRole[_userAddress] = _role;\r\n        \r\n        return true;\r\n    }  \r\n    \r\n    /*get user details*/\r\n    function getUser(address _userAddress) public onlyAuthCaller payable returns(string memory name, \r\n                                                                    string memory contactNo, \r\n                                                                    string memory role,\r\n                                                                    bool isActive, \r\n                                                                    string memory profileHash\r\n                                                                ){\r\n\r\n        /*Getting value from struct*/\r\n        user memory tmpData = userDetails[_userAddress];\r\n        \r\n        return (tmpData.name, tmpData.contactNo, userRole[_userAddress], tmpData.isActive, tmpData.profileHash);\r\n    }\r\n    \r\n    /*get batch basicDetails*/\r\n    function getBasicDetails(address _batchNo) public onlyAuthCaller payable returns(string memory registrationNo,\r\n                             string memory farmerName,\r\n                             string memory farmAddress,\r\n                             string memory manufacturerName,\r\n                             string memory distributorName) {\r\n        \r\n        basicDetails memory tmpData = batchBasicDetails[_batchNo];\r\n        \r\n        return (tmpData.registrationNo,tmpData.farmerName,tmpData.farmAddress,tmpData.manufacturerName,tmpData.distributorName);\r\n    }\r\n    \r\n    /*set batch basicDetails*/\r\n    function setBasicDetails(string memory _registrationNo,\r\n                             string memory _farmerName,\r\n                             string memory _farmAddress,\r\n                             string memory _manufacturerName,\r\n                             string memory _distributorName\r\n                             \r\n                            ) public onlyAuthCaller returns(address) {\r\n        \r\n        uint tmpData = uint(keccak256(abi.encodePacked(msg.sender, now)));\r\n        address batchNo = address(tmpData);\r\n        \r\n        basicDetailsData.registrationNo = _registrationNo;\r\n        basicDetailsData.farmerName = _farmerName;\r\n        basicDetailsData.farmAddress = _farmAddress;\r\n        basicDetailsData.manufacturerName = _manufacturerName;\r\n        basicDetailsData.distributorName = _distributorName;\r\n        \r\n        batchBasicDetails[batchNo] = basicDetailsData;\r\n        \r\n        nextAction[batchNo] = 'FARMER';   \r\n        \r\n        \r\n        return batchNo;\r\n    }\r\n\r\n    \r\n    /*set Farmer data*/\r\n    function setFarmerData(address batchNo,\r\n                              string memory _cropVariety,\r\n                              string memory _temperatureUsed,\r\n                              string memory _humidity) public onlyAuthCaller returns(bool){\r\n        farmerData.cropVariety = _cropVariety;\r\n        farmerData.temperatureUsed = _temperatureUsed;\r\n        farmerData.humidity = _humidity;\r\n        \r\n        batchFarmer[batchNo] = farmerData;\r\n        \r\n        nextAction[batchNo] = 'MANUFACTURER'; \r\n        \r\n        return true;\r\n    }\r\n    \r\n    /*get farmer data*/\r\n    function getFarmerData(address batchNo) public onlyAuthCaller payable returns(string memory cropVariety,\r\n                                                                                           string memory temperatureUsed,\r\n                                                                                           string memory humidity){\r\n        \r\n        farmer memory tmpData = batchFarmer[batchNo];\r\n        return (tmpData.cropVariety, tmpData.temperatureUsed, tmpData.humidity);\r\n    }\r\n    \r\n    /*set Mnaufacturer data*/\r\n    function setManufacturerData(address batchNo,\r\n                              uint256 _quantity,    \r\n                              string memory _destinationAddress,\r\n                              string memory _shipName,\r\n                              string memory _shipNo,\r\n                              uint256 _estimateDateTime,\r\n                              uint256 _manufacturerId) public onlyAuthCaller returns(bool){\r\n        \r\n        manufacturerData.quantity = _quantity;\r\n        manufacturerData.destinationAddress = _destinationAddress;\r\n        manufacturerData.shipName = _shipName;\r\n        manufacturerData.shipNo = _shipNo;\r\n        manufacturerData.departureDateTime = now;\r\n        manufacturerData.estimateDateTime = _estimateDateTime;\r\n        manufacturerData.manufacturerId = _manufacturerId;\r\n        \r\n        batchManufacturer[batchNo] = manufacturerData;\r\n        \r\n        nextAction[batchNo] = 'DISTRIBUTOR'; \r\n        \r\n        return true;\r\n    }\r\n    \r\n    /*get Manufacturer data*/\r\n    function getManufacturerData(address batchNo) public onlyAuthCaller payable returns(uint256 quantity,\r\n                                                                string memory destinationAddress,\r\n                                                                string memory shipName,\r\n                                                                string memory shipNo,\r\n                                                                uint256 departureDateTime,\r\n                                                                uint256 estimateDateTime,\r\n                                                                uint256 manfacturerId){\r\n        \r\n        \r\n        manufacturer memory tmpData = batchManufacturer[batchNo];\r\n        \r\n        \r\n        return (tmpData.quantity, \r\n                tmpData.destinationAddress, \r\n                tmpData.shipName, \r\n                tmpData.shipNo, \r\n                tmpData.departureDateTime, \r\n                tmpData.estimateDateTime, \r\n                tmpData.manufacturerId);\r\n                \r\n        \r\n    }\r\n\r\n    \r\n    /*set Distributor data*/\r\n    function setDistributorData(address batchNo,\r\n                              uint256 _quantity, \r\n                              string memory _shipName,\r\n                              string memory _shipNo,\r\n                              string memory _warehouseName,\r\n                              string memory _warehouseAddress,\r\n                              uint256 _distributorId) public onlyAuthCaller returns(bool){\r\n        \r\n        distributorData.quantity = _quantity;\r\n        distributorData.shipName = _shipName;\r\n        distributorData.shipNo = _shipNo;\r\n        distributorData.arrivalDateTime = now;\r\n        distributorData.warehouseName = _warehouseName;\r\n        distributorData.warehouseAddress = _warehouseAddress;\r\n        distributorData.distributorId = _distributorId;\r\n        \r\n        batchDistributor[batchNo] = distributorData;\r\n        \r\n        nextAction[batchNo] = 'RETAILER'; \r\n        \r\n        return true;\r\n    }\r\n    \r\n    /*get Distributor data*/\r\n    function getDistributorData(address batchNo) public onlyAuthCaller payable returns(uint256 quantity,\r\n                                                                                        string memory shipName,\r\n                                                                                        string memory shipNo,\r\n                                                                                        uint256 arrivalDateTime,\r\n                                                                                        string memory warehouseName,\r\n                                                                                        string memory warehouseAddress,\r\n                                                                                        uint256 distributorId){\r\n        \r\n        distributor memory tmpData = batchDistributor[batchNo];\r\n        \r\n        \r\n        return (tmpData.quantity, \r\n                tmpData.shipName, \r\n                tmpData.shipNo, \r\n                tmpData.arrivalDateTime,\r\n                tmpData.warehouseName,\r\n                tmpData.warehouseAddress,\r\n                tmpData.distributorId);\r\n                \r\n        \r\n    }\r\n\r\n    /*set Retailer data*/\r\n    function setRetailerData(address batchNo,\r\n                              uint256 _quantity, \r\n                              string memory _temperature,\r\n                              string memory _internalBatchNo,\r\n                              uint256 _packageDateTime,\r\n                              string memory _retailerName,\r\n                              string memory _retailerAddress) public onlyAuthCaller returns(bool){\r\n        \r\n        \r\n        retailerData.quantity = _quantity;\r\n        retailerData.temperature = _temperature;\r\n        retailerData.internalBatchNo = _internalBatchNo;\r\n        retailerData.packageDateTime = _packageDateTime;\r\n        retailerData.retailerName = _retailerName;\r\n        retailerData.retailerAddress = _retailerAddress;\r\n        \r\n        batchRetailer[batchNo] = retailerData;\r\n        \r\n        nextAction[batchNo] = 'DONE'; \r\n        \r\n        return true;\r\n    }\r\n    \r\n    \r\n    /*get Retailer data*/\r\n    function getRetailerData( address batchNo) public onlyAuthCaller payable returns(\r\n                                                                                        uint256 quantity,\r\n                                                                                        string memory temperature,\r\n                                                                                        string memory internalBatchNo,\r\n                                                                                        uint256 packageDateTime,\r\n                                                                                        string memory retailerName,\r\n                                                                                        string memory retailerAddress){\r\n\r\n        retailer memory tmpData = batchRetailer[batchNo];\r\n        \r\n        \r\n        return (\r\n                tmpData.quantity, \r\n                tmpData.temperature, \r\n                tmpData.internalBatchNo,\r\n                tmpData.packageDateTime,\r\n                tmpData.retailerName,\r\n                tmpData.retailerAddress);\r\n                \r\n        \r\n    }\r\n  \r\n}    ",
  "sourcePath": "C:\\Users\\urshi\\Desktop\\coffeeSCM\\contracts\\SupplyChainStorage.sol",
  "compiler": {
    "name": "solc",
    "version": "0.5.10+commit.5a6ea5b1.Emscripten.clang"
  },
  "schemaVersion": "3.0.16",
  "updatedAt": "2019-10-30T12:47:02.202Z",
  "devdoc": {
    "methods": {
      "renounceOwnership()": {
        "details": "Allows the current owner to relinquish control of the contract.\r"
      },
      "transferOwnership(address)": {
        "details": "Allows the current owner to transfer control of the contract to a newOwner.\r",
        "params": {
          "newOwner": "The address to transfer ownership to.\r"
        }
      }
    }
  },
  "userdoc": {
    "methods": {}
  }
}